{
  "contractName": "DateNight",
  "abi": [
    {
      "constant": true,
      "inputs": [],
      "name": "registrationDeadline",
      "outputs": [
        {
          "name": "",
          "type": "uint256"
        }
      ],
      "payable": false,
      "stateMutability": "view",
      "type": "function"
    },
    {
      "constant": true,
      "inputs": [],
      "name": "maxParticipants",
      "outputs": [
        {
          "name": "",
          "type": "uint256"
        }
      ],
      "payable": false,
      "stateMutability": "view",
      "type": "function"
    },
    {
      "constant": true,
      "inputs": [
        {
          "name": "",
          "type": "uint256"
        }
      ],
      "name": "duration",
      "outputs": [
        {
          "name": "",
          "type": "uint256"
        }
      ],
      "payable": false,
      "stateMutability": "view",
      "type": "function"
    },
    {
      "constant": true,
      "inputs": [
        {
          "name": "",
          "type": "uint256"
        }
      ],
      "name": "participants",
      "outputs": [
        {
          "name": "",
          "type": "address"
        }
      ],
      "payable": false,
      "stateMutability": "view",
      "type": "function"
    },
    {
      "constant": true,
      "inputs": [],
      "name": "priceInWei",
      "outputs": [
        {
          "name": "",
          "type": "uint256"
        }
      ],
      "payable": false,
      "stateMutability": "view",
      "type": "function"
    },
    {
      "constant": false,
      "inputs": [
        {
          "name": "_itinerary",
          "type": "string"
        }
      ],
      "name": "agentSubmitVacation",
      "outputs": [],
      "payable": false,
      "stateMutability": "nonpayable",
      "type": "function"
    },
    {
      "constant": true,
      "inputs": [],
      "name": "getParticipants",
      "outputs": [
        {
          "name": "",
          "type": "address[]"
        }
      ],
      "payable": false,
      "stateMutability": "view",
      "type": "function"
    },
    {
      "constant": false,
      "inputs": [],
      "name": "buyin",
      "outputs": [
        {
          "name": "success",
          "type": "bool"
        }
      ],
      "payable": true,
      "stateMutability": "payable",
      "type": "function"
    },
    {
      "constant": true,
      "inputs": [],
      "name": "itinerary",
      "outputs": [
        {
          "name": "",
          "type": "string"
        }
      ],
      "payable": false,
      "stateMutability": "view",
      "type": "function"
    },
    {
      "constant": true,
      "inputs": [],
      "name": "getDuration",
      "outputs": [
        {
          "name": "",
          "type": "uint256[]"
        }
      ],
      "payable": false,
      "stateMutability": "view",
      "type": "function"
    },
    {
      "constant": true,
      "inputs": [],
      "name": "scheduled",
      "outputs": [
        {
          "name": "",
          "type": "bool"
        }
      ],
      "payable": false,
      "stateMutability": "view",
      "type": "function"
    },
    {
      "constant": true,
      "inputs": [],
      "name": "travelAgentRegistry",
      "outputs": [
        {
          "name": "",
          "type": "address"
        }
      ],
      "payable": false,
      "stateMutability": "view",
      "type": "function"
    },
    {
      "constant": false,
      "inputs": [],
      "name": "donate",
      "outputs": [],
      "payable": true,
      "stateMutability": "payable",
      "type": "function"
    },
    {
      "constant": false,
      "inputs": [],
      "name": "quit",
      "outputs": [],
      "payable": false,
      "stateMutability": "nonpayable",
      "type": "function"
    },
    {
      "inputs": [
        {
          "name": "_registrationDeadline",
          "type": "uint256"
        },
        {
          "name": "_dateBegin",
          "type": "uint256"
        },
        {
          "name": "_dateEnd",
          "type": "uint256"
        },
        {
          "name": "_whitelist",
          "type": "address[]"
        },
        {
          "name": "_agentRegistry",
          "type": "address"
        }
      ],
      "payable": false,
      "stateMutability": "nonpayable",
      "type": "constructor"
    },
    {
      "payable": true,
      "stateMutability": "payable",
      "type": "fallback"
    }
  ],
  "bytecode": "0x6060604052341561000f57600080fd5b604051610f23380380610f2383398101604052808051906020019091908051906020019091908051906020019091908051820191906020018051906020019091905050600085858585600286806000806101000a81548173ffffffffffffffffffffffffffffffffffffffff021916908373ffffffffffffffffffffffffffffffffffffffff16021790555086600181905550816006819055508560038190555060408051908101604052808681526020018581525060049060026100d59291906100e7565b5050505050505050505050505061014c565b8260028101928215610116579160200282015b828111156101155782518255916020019190600101906100fa565b5b5090506101239190610127565b5090565b61014991905b8082111561014557600081600090555060010161012d565b5090565b90565b610dc88061015b6000396000f3006060604052600436106100d0576000357c0100000000000000000000000000000000000000000000000000000000900463ffffffff16806311184392146100d257806324924bf7146100fb57806335bc54621461012457806335c1d3491461015b5780633c8da588146101be57806354583bd4146101e75780635aa68ac01461024457806369766079146102ae5780636fa17a4d146102d0578063ad2e8c9b1461035e578063c615b433146103c8578063dc4d6181146103f5578063ed88c68e1461044a578063fc2b8cc314610454575b005b34156100dd57600080fd5b6100e5610469565b6040518082815260200191505060405180910390f35b341561010657600080fd5b61010e61046f565b6040518082815260200191505060405180910390f35b341561012f57600080fd5b6101456004808035906020019091905050610475565b6040518082815260200191505060405180910390f35b341561016657600080fd5b61017c600480803590602001909190505061048f565b604051808273ffffffffffffffffffffffffffffffffffffffff1673ffffffffffffffffffffffffffffffffffffffff16815260200191505060405180910390f35b34156101c957600080fd5b6101d16104ce565b6040518082815260200191505060405180910390f35b34156101f257600080fd5b610242600480803590602001908201803590602001908080601f016020809104026020016040519081016040528093929190818152602001838380828437820191505050505050919050506104d4565b005b341561024f57600080fd5b610257610688565b6040518080602001828103825283818151815260200191508051906020019060200280838360005b8381101561029a57808201518184015260208101905061027f565b505050509050019250505060405180910390f35b6102b661076c565b604051808215151515815260200191505060405180910390f35b34156102db57600080fd5b6102e36107ad565b6040518080602001828103825283818151815260200191508051906020019080838360005b83811015610323578082015181840152602081019050610308565b50505050905090810190601f1680156103505780820380516001836020036101000a031916815260200191505b509250505060405180910390f35b341561036957600080fd5b61037161084b565b6040518080602001828103825283818151815260200191508051906020019060200280838360005b838110156103b4578082015181840152602081019050610399565b505050509050019250505060405180910390f35b34156103d357600080fd5b6103db6108e2565b604051808215151515815260200191505060405180910390f35b341561040057600080fd5b6104086108f5565b604051808273ffffffffffffffffffffffffffffffffffffffff1673ffffffffffffffffffffffffffffffffffffffff16815260200191505060405180910390f35b61045261091a565b005b341561045f57600080fd5b61046761091c565b005b60035481565b60065481565b60048160028110151561048457fe5b016000915090505481565b60028181548110151561049e57fe5b90600052602060002090016000915054906101000a900473ffffffffffffffffffffffffffffffffffffffff1681565b60015481565b600960009054906101000a900460ff161515156104f057600080fd5b600280549050600654148061050757506003544210155b151561051257600080fd5b6000809054906101000a900473ffffffffffffffffffffffffffffffffffffffff1673ffffffffffffffffffffffffffffffffffffffff1663c3c5a547336000604051602001526040518263ffffffff167c0100000000000000000000000000000000000000000000000000000000028152600401808273ffffffffffffffffffffffffffffffffffffffff1673ffffffffffffffffffffffffffffffffffffffff168152602001915050602060405180830381600087803b15156105d657600080fd5b6102c65a03f115156105e757600080fd5b5050506040518051905015156105fc57600080fd5b8060089080519060200190610612929190610c77565b503373ffffffffffffffffffffffffffffffffffffffff166108fc3073ffffffffffffffffffffffffffffffffffffffff16319081150290604051600060405180830381858888f19350505050151561066a57600080fd5b6001600960006101000a81548160ff02191690831515021790555050565b610690610cf7565b610698610cf7565b60006002805490506040518059106106ad5750595b90808252806020026020018201604052509150600090505b600280549050811015610764576002818154811015156106e157fe5b906000526020600020900160009054906101000a900473ffffffffffffffffffffffffffffffffffffffff16828281518110151561071b57fe5b9060200190602002019073ffffffffffffffffffffffffffffffffffffffff16908173ffffffffffffffffffffffffffffffffffffffff168152505080806001019150506106c5565b819250505090565b600060065460028054905010151561078357600080fd5b6001543414151561079357600080fd5b61079b6109e9565b15156107a657600080fd5b6001905090565b60088054600181600116156101000203166002900480601f0160208091040260200160405190810160405280929190818152602001828054600181600116156101000203166002900480156108435780601f1061081857610100808354040283529160200191610843565b820191906000526020600020905b81548152906001019060200180831161082657829003601f168201915b505050505081565b610853610d0b565b61085b610d0b565b600260405180591061086a5750595b908082528060200260200182016040525090506004600060028110151561088d57fe5b015481600081518110151561089e57fe5b9060200190602002018181525050600460016002811015156108bc57fe5b01548160018151811015156108cd57fe5b90602001906020020181815250508091505090565b600960009054906101000a900460ff1681565b6000809054906101000a900473ffffffffffffffffffffffffffffffffffffffff1681565b565b60011515600760003373ffffffffffffffffffffffffffffffffffffffff1673ffffffffffffffffffffffffffffffffffffffff16815260200190815260200160002060009054906101000a900460ff16151514151561097b57600080fd5b6000600760003373ffffffffffffffffffffffffffffffffffffffff1673ffffffffffffffffffffffffffffffffffffffff16815260200190815260200160002060006101000a81548160ff0219169083151502179055506109dc33610b22565b15156109e757600080fd5b565b6000600960009054906101000a900460ff16151515610a0757600080fd5b600760003373ffffffffffffffffffffffffffffffffffffffff1673ffffffffffffffffffffffffffffffffffffffff16815260200190815260200160002060009054906101000a900460ff16151515610a6057600080fd5b6001600760003373ffffffffffffffffffffffffffffffffffffffff1673ffffffffffffffffffffffffffffffffffffffff16815260200190815260200160002060006101000a81548160ff02191690831515021790555060028054806001018281610acc9190610d1f565b9160005260206000209001600033909190916101000a81548173ffffffffffffffffffffffffffffffffffffffff021916908373ffffffffffffffffffffffffffffffffffffffff160217905550506001905090565b600080600090505b600280549050811015610c6c578273ffffffffffffffffffffffffffffffffffffffff16600282815481101515610b5d57fe5b906000526020600020900160009054906101000a900473ffffffffffffffffffffffffffffffffffffffff1673ffffffffffffffffffffffffffffffffffffffff161415610c5f576002600160028054905003815481101515610bbc57fe5b906000526020600020900160009054906101000a900473ffffffffffffffffffffffffffffffffffffffff16600282815481101515610bf757fe5b906000526020600020900160006101000a81548173ffffffffffffffffffffffffffffffffffffffff021916908373ffffffffffffffffffffffffffffffffffffffff1602179055506002805480919060019003610c559190610d4b565b5060019150610c71565b8080600101915050610b2a565b600091505b50919050565b828054600181600116156101000203166002900490600052602060002090601f016020900481019282601f10610cb857805160ff1916838001178555610ce6565b82800160010185558215610ce6579182015b82811115610ce5578251825591602001919060010190610cca565b5b509050610cf39190610d77565b5090565b602060405190810160405280600081525090565b602060405190810160405280600081525090565b815481835581811511610d4657818360005260206000209182019101610d459190610d77565b5b505050565b815481835581811511610d7257818360005260206000209182019101610d719190610d77565b5b505050565b610d9991905b80821115610d95576000816000905550600101610d7d565b5090565b905600a165627a7a72305820db1b2546d2b9343f2bd31789ad45b2fa2715c0b25318b483c70ac4c9d7bd8ddf0029",
  "source": "/**\n * @dev When Valentines Day sneaks up on you again\n */\n\npragma solidity ^0.4.18;\n\nimport './VacationCore.sol';\n\ncontract DateNight is VacationCore {\n\n    /*\n     * @param priceInEther Price or Min. Price each person pays in equalPayment is true \n     * @dateBegin date the trip will begin\n     * @dateEnd   date the trip will end\n     * @whitelist users who you allow to participate, leave empty if open to the world\n     */\n\n    function DateNight(uint _registrationDeadline, uint _dateBegin, uint _dateEnd, address[] _whitelist, address _agentRegistry)\n    VacationCore(0, _registrationDeadline, _dateBegin, _dateEnd, _whitelist, 2, _agentRegistry)  \n    {}\n \n    function buyin() payable public returns (bool success) {\n        require(participants.length < maxParticipants);\n        require(msg.value == priceInWei);\n        require(super.buyin());\n        return true;\n    }\n    \n    function donate() payable  public {}\n\n    function() payable public {}\n}",
  "sourcePath": "/home/deon/sites/aepp/aepp-blockchain/contracts/DateNight.sol",
  "compiler": {
    "name": "solc",
    "version": "0.4.18+commit.9cf6e910.Emscripten.clang"
  },
  "schemaVersion": "1.0.1",
  "updatedAt": "2017-12-09T21:30:53.780Z"
}