{
  "contractName": "TravelAgentRegistry",
  "abi": [
    {
      "constant": false,
      "inputs": [],
      "name": "register",
      "outputs": [
        {
          "name": "",
          "type": "bool"
        }
      ],
      "payable": false,
      "stateMutability": "nonpayable",
      "type": "function"
    },
    {
      "constant": true,
      "inputs": [],
      "name": "recipient",
      "outputs": [
        {
          "name": "",
          "type": "address"
        }
      ],
      "payable": false,
      "stateMutability": "view",
      "type": "function"
    },
    {
      "constant": true,
      "inputs": [],
      "name": "isAgent",
      "outputs": [
        {
          "name": "",
          "type": "bool"
        }
      ],
      "payable": false,
      "stateMutability": "view",
      "type": "function"
    },
    {
      "constant": true,
      "inputs": [
        {
          "name": "_user",
          "type": "address"
        }
      ],
      "name": "isRegistered",
      "outputs": [
        {
          "name": "",
          "type": "bool"
        }
      ],
      "payable": false,
      "stateMutability": "view",
      "type": "function"
    },
    {
      "constant": true,
      "inputs": [],
      "name": "FEE",
      "outputs": [
        {
          "name": "",
          "type": "uint256"
        }
      ],
      "payable": false,
      "stateMutability": "view",
      "type": "function"
    },
    {
      "constant": true,
      "inputs": [],
      "name": "token",
      "outputs": [
        {
          "name": "",
          "type": "address"
        }
      ],
      "payable": false,
      "stateMutability": "view",
      "type": "function"
    },
    {
      "inputs": [
        {
          "name": "_tokenAddress",
          "type": "address"
        }
      ],
      "payable": false,
      "stateMutability": "nonpayable",
      "type": "constructor"
    }
  ],
  "bytecode": "0x6060604052341561000f57600080fd5b6040516020806105958339810160405280805190602001909190505080600260006101000a81548173ffffffffffffffffffffffffffffffffffffffff021916908373ffffffffffffffffffffffffffffffffffffffff16021790555033600160006101000a81548173ffffffffffffffffffffffffffffffffffffffff021916908373ffffffffffffffffffffffffffffffffffffffff160217905550506104d8806100bd6000396000f300606060405260043610610078576000357c0100000000000000000000000000000000000000000000000000000000900463ffffffff1680631aa3a0081461007d57806366d003ac146100aa578063932243ea146100ff578063c3c5a5471461012c578063c57981b51461017d578063fc0c546a146101a6575b600080fd5b341561008857600080fd5b6100906101fb565b604051808215151515815260200191505060405180910390f35b34156100b557600080fd5b6100bd6103ac565b604051808273ffffffffffffffffffffffffffffffffffffffff1673ffffffffffffffffffffffffffffffffffffffff16815260200191505060405180910390f35b341561010a57600080fd5b6101126103d2565b604051808215151515815260200191505060405180910390f35b341561013757600080fd5b610163600480803573ffffffffffffffffffffffffffffffffffffffff16906020019091905050610425565b604051808215151515815260200191505060405180910390f35b341561018857600080fd5b61019061047a565b6040518082815260200191505060405180910390f35b34156101b157600080fd5b6101b9610486565b604051808273ffffffffffffffffffffffffffffffffffffffff1673ffffffffffffffffffffffffffffffffffffffff16815260200191505060405180910390f35b6000600260009054906101000a900473ffffffffffffffffffffffffffffffffffffffff1673ffffffffffffffffffffffffffffffffffffffff166323b872dd33600160009054906101000a900473ffffffffffffffffffffffffffffffffffffffff16670de0b6b3a76400006000604051602001526040518463ffffffff167c0100000000000000000000000000000000000000000000000000000000028152600401808473ffffffffffffffffffffffffffffffffffffffff1673ffffffffffffffffffffffffffffffffffffffff1681526020018373ffffffffffffffffffffffffffffffffffffffff1673ffffffffffffffffffffffffffffffffffffffff1681526020018281526020019350505050602060405180830381600087803b151561032857600080fd5b6102c65a03f1151561033957600080fd5b50505060405180519050151561034e57600080fd5b60016000803373ffffffffffffffffffffffffffffffffffffffff1673ffffffffffffffffffffffffffffffffffffffff16815260200190815260200160002060006101000a81548160ff0219169083151502179055506001905090565b600160009054906101000a900473ffffffffffffffffffffffffffffffffffffffff1681565b60008060003373ffffffffffffffffffffffffffffffffffffffff1673ffffffffffffffffffffffffffffffffffffffff16815260200190815260200160002060009054906101000a900460ff16905090565b60008060008373ffffffffffffffffffffffffffffffffffffffff1673ffffffffffffffffffffffffffffffffffffffff16815260200190815260200160002060009054906101000a900460ff169050919050565b670de0b6b3a764000081565b600260009054906101000a900473ffffffffffffffffffffffffffffffffffffffff16815600a165627a7a72305820a234aedf8b94cbf4b9e9bd2f7a1bd6c8293f072e67fc5a6baa6e55613d65a9230029",
  "source": "/**\n * @dev Certifies if a person is qualified to be a travel agent\n */\n \n pragma solidity ^0.4.18;\n\n\nimport './tokens/Token.sol';\n\ncontract TravelAgentRegistry {\n    mapping(address => bool) registered;\n    address public recipient;\n    uint256 constant public FEE = 1 * 10 ** 18;\n    Token public token;\n\n    function TravelAgentRegistry(address _tokenAddress) {\n        token = Token(_tokenAddress);\n        recipient = msg.sender;\n    }\n\n    function isRegistered(address _user) public view returns (bool) {\n        return registered[_user];\n    }\n\n    function register() public returns(bool) {\n        require(token.transferFrom(msg.sender, recipient, FEE));\n        registered[msg.sender] = true;\n        return true;\n    }\n\n    function isAgent() public view returns (bool) {\n        return registered[msg.sender];\n    }\n}",
  "sourcePath": "/home/deon/sites/aepp/aepp-blockchain/contracts/TravelAgentRegistry.sol",
  "compiler": {
    "name": "solc",
    "version": "0.4.18+commit.9cf6e910.Emscripten.clang"
  },
  "schemaVersion": "1.0.1",
  "updatedAt": "2017-12-09T21:30:54.242Z"
}