{
  "contractName": "TravelAgentRegistry",
  "abi": [
    {
      "constant": false,
      "inputs": [],
      "name": "register",
      "outputs": [],
      "payable": false,
      "stateMutability": "nonpayable",
      "type": "function"
    },
    {
      "constant": true,
      "inputs": [],
      "name": "isAgent",
      "outputs": [
        {
          "name": "",
          "type": "bool"
        }
      ],
      "payable": false,
      "stateMutability": "view",
      "type": "function"
    },
    {
      "constant": true,
      "inputs": [
        {
          "name": "_user",
          "type": "address"
        }
      ],
      "name": "isRegistered",
      "outputs": [
        {
          "name": "",
          "type": "bool"
        }
      ],
      "payable": false,
      "stateMutability": "view",
      "type": "function"
    },
    {
      "inputs": [],
      "payable": false,
      "stateMutability": "nonpayable",
      "type": "constructor"
    }
  ],
  "bytecode": "0x6060604052341561000f57600080fd5b61021c8061001e6000396000f300606060405260043610610057576000357c0100000000000000000000000000000000000000000000000000000000900463ffffffff1680631aa3a0081461005c578063932243ea14610071578063c3c5a5471461009e575b600080fd5b341561006757600080fd5b61006f6100ef565b005b341561007c57600080fd5b610084610148565b604051808215151515815260200191505060405180910390f35b34156100a957600080fd5b6100d5600480803573ffffffffffffffffffffffffffffffffffffffff1690602001909190505061019b565b604051808215151515815260200191505060405180910390f35b60016000803373ffffffffffffffffffffffffffffffffffffffff1673ffffffffffffffffffffffffffffffffffffffff16815260200190815260200160002060006101000a81548160ff021916908315150217905550565b60008060003373ffffffffffffffffffffffffffffffffffffffff1673ffffffffffffffffffffffffffffffffffffffff16815260200190815260200160002060009054906101000a900460ff16905090565b60008060008373ffffffffffffffffffffffffffffffffffffffff1673ffffffffffffffffffffffffffffffffffffffff16815260200190815260200160002060009054906101000a900460ff1690509190505600a165627a7a72305820b22a9420920de5177927d2d8d3a7eda14acb8e133f73ea9061cde2648fbd23a90029",
  "source": "/**\n * @dev Certifies if a person is qualified to be a travel agent\n */\n \n pragma solidity ^0.4.18;\n\ncontract TravelAgentRegistry {\n    mapping(address => bool) registered;\n\n    function TravelAgentRegistry() {\n    }\n\n    function isRegistered(address _user) public view returns (bool) {\n        return registered[_user];\n    }\n\n    function register() public {\n        registered[msg.sender] = true;\n    }\n\n    function isAgent() public view returns (bool) {\n        return registered[msg.sender];\n    }\n}",
  "sourcePath": "/home/deon/sites/aepp/aepp-blockchain/contracts/TravelAgentRegistry.sol",
  "compiler": {
    "name": "solc",
    "version": "0.4.18+commit.9cf6e910.Emscripten.clang"
  },
  "schemaVersion": "1.0.1",
  "updatedAt": "2017-12-05T02:09:44.156Z"
}