{
  "contractName": "VacationCore",
  "abi": [
    {
      "constant": true,
      "inputs": [],
      "name": "registrationDeadline",
      "outputs": [
        {
          "name": "",
          "type": "uint256"
        }
      ],
      "payable": false,
      "stateMutability": "view",
      "type": "function"
    },
    {
      "constant": true,
      "inputs": [],
      "name": "maxParticipants",
      "outputs": [
        {
          "name": "",
          "type": "uint256"
        }
      ],
      "payable": false,
      "stateMutability": "view",
      "type": "function"
    },
    {
      "constant": true,
      "inputs": [
        {
          "name": "",
          "type": "uint256"
        }
      ],
      "name": "duration",
      "outputs": [
        {
          "name": "",
          "type": "uint256"
        }
      ],
      "payable": false,
      "stateMutability": "view",
      "type": "function"
    },
    {
      "constant": true,
      "inputs": [
        {
          "name": "",
          "type": "uint256"
        }
      ],
      "name": "participants",
      "outputs": [
        {
          "name": "",
          "type": "address"
        }
      ],
      "payable": false,
      "stateMutability": "view",
      "type": "function"
    },
    {
      "constant": true,
      "inputs": [],
      "name": "priceInWei",
      "outputs": [
        {
          "name": "",
          "type": "uint256"
        }
      ],
      "payable": false,
      "stateMutability": "view",
      "type": "function"
    },
    {
      "constant": false,
      "inputs": [
        {
          "name": "_itinerary",
          "type": "string"
        }
      ],
      "name": "agentSubmitVacation",
      "outputs": [],
      "payable": false,
      "stateMutability": "nonpayable",
      "type": "function"
    },
    {
      "constant": true,
      "inputs": [],
      "name": "getParticipants",
      "outputs": [
        {
          "name": "",
          "type": "address[]"
        }
      ],
      "payable": false,
      "stateMutability": "view",
      "type": "function"
    },
    {
      "constant": false,
      "inputs": [],
      "name": "buyin",
      "outputs": [
        {
          "name": "success",
          "type": "bool"
        }
      ],
      "payable": true,
      "stateMutability": "payable",
      "type": "function"
    },
    {
      "constant": true,
      "inputs": [],
      "name": "itinerary",
      "outputs": [
        {
          "name": "",
          "type": "string"
        }
      ],
      "payable": false,
      "stateMutability": "view",
      "type": "function"
    },
    {
      "constant": true,
      "inputs": [],
      "name": "getDuration",
      "outputs": [
        {
          "name": "",
          "type": "uint256[]"
        }
      ],
      "payable": false,
      "stateMutability": "view",
      "type": "function"
    },
    {
      "constant": true,
      "inputs": [],
      "name": "scheduled",
      "outputs": [
        {
          "name": "",
          "type": "bool"
        }
      ],
      "payable": false,
      "stateMutability": "view",
      "type": "function"
    },
    {
      "constant": true,
      "inputs": [],
      "name": "travelAgentRegistry",
      "outputs": [
        {
          "name": "",
          "type": "address"
        }
      ],
      "payable": false,
      "stateMutability": "view",
      "type": "function"
    },
    {
      "constant": false,
      "inputs": [],
      "name": "quit",
      "outputs": [],
      "payable": false,
      "stateMutability": "nonpayable",
      "type": "function"
    },
    {
      "inputs": [
        {
          "name": "_priceInWei",
          "type": "uint256"
        },
        {
          "name": "_registrationDeadline",
          "type": "uint256"
        },
        {
          "name": "_dateBegin",
          "type": "uint256"
        },
        {
          "name": "_dateEnd",
          "type": "uint256"
        },
        {
          "name": "_whitelist",
          "type": "address[]"
        },
        {
          "name": "_maxParticipants",
          "type": "uint256"
        },
        {
          "name": "_agentRegistry",
          "type": "address"
        }
      ],
      "payable": false,
      "stateMutability": "nonpayable",
      "type": "constructor"
    },
    {
      "payable": false,
      "stateMutability": "nonpayable",
      "type": "fallback"
    }
  ],
  "bytecode": "0x6060604052341561000f57600080fd5b604051610edd380380610edd83398101604052808051906020019091908051906020019091908051906020019091908051906020019091908051820191906020018051906020019091908051906020019091905050806000806101000a81548173ffffffffffffffffffffffffffffffffffffffff021916908373ffffffffffffffffffffffffffffffffffffffff16021790555086600181905550816006819055508560038190555060408051908101604052808681526020018581525060049060026100de9291906100eb565b5050505050505050610150565b826002810192821561011a579160200282015b828111156101195782518255916020019190600101906100fe565b5b509050610127919061012b565b5090565b61014d91905b80821115610149576000816000905550600101610131565b5090565b90565b610d7e8061015f6000396000f3006060604052600436106100c5576000357c0100000000000000000000000000000000000000000000000000000000900463ffffffff16806311184392146100d557806324924bf7146100fe57806335bc54621461012757806335c1d3491461015e5780633c8da588146101c157806354583bd4146101ea5780635aa68ac01461024757806369766079146102b15780636fa17a4d146102d3578063ad2e8c9b14610361578063c615b433146103cb578063dc4d6181146103f8578063fc2b8cc31461044d575b34156100d057600080fd5b600080fd5b34156100e057600080fd5b6100e8610462565b6040518082815260200191505060405180910390f35b341561010957600080fd5b610111610468565b6040518082815260200191505060405180910390f35b341561013257600080fd5b610148600480803590602001909190505061046e565b6040518082815260200191505060405180910390f35b341561016957600080fd5b61017f6004808035906020019091905050610488565b604051808273ffffffffffffffffffffffffffffffffffffffff1673ffffffffffffffffffffffffffffffffffffffff16815260200191505060405180910390f35b34156101cc57600080fd5b6101d46104c7565b6040518082815260200191505060405180910390f35b34156101f557600080fd5b610245600480803590602001908201803590602001908080601f016020809104026020016040519081016040528093929190818152602001838380828437820191505050505050919050506104cd565b005b341561025257600080fd5b61025a610681565b6040518080602001828103825283818151815260200191508051906020019060200280838360005b8381101561029d578082015181840152602081019050610282565b505050509050019250505060405180910390f35b6102b9610765565b604051808215151515815260200191505060405180910390f35b34156102de57600080fd5b6102e661089e565b6040518080602001828103825283818151815260200191508051906020019080838360005b8381101561032657808201518184015260208101905061030b565b50505050905090810190601f1680156103535780820380516001836020036101000a031916815260200191505b509250505060405180910390f35b341561036c57600080fd5b61037461093c565b6040518080602001828103825283818151815260200191508051906020019060200280838360005b838110156103b757808201518184015260208101905061039c565b505050509050019250505060405180910390f35b34156103d657600080fd5b6103de6109d3565b604051808215151515815260200191505060405180910390f35b341561040357600080fd5b61040b6109e6565b604051808273ffffffffffffffffffffffffffffffffffffffff1673ffffffffffffffffffffffffffffffffffffffff16815260200191505060405180910390f35b341561045857600080fd5b610460610a0b565b005b60035481565b60065481565b60048160028110151561047d57fe5b016000915090505481565b60028181548110151561049757fe5b90600052602060002090016000915054906101000a900473ffffffffffffffffffffffffffffffffffffffff1681565b60015481565b600960009054906101000a900460ff161515156104e957600080fd5b600280549050600654148061050057506003544210155b151561050b57600080fd5b6000809054906101000a900473ffffffffffffffffffffffffffffffffffffffff1673ffffffffffffffffffffffffffffffffffffffff1663c3c5a547336000604051602001526040518263ffffffff167c0100000000000000000000000000000000000000000000000000000000028152600401808273ffffffffffffffffffffffffffffffffffffffff1673ffffffffffffffffffffffffffffffffffffffff168152602001915050602060405180830381600087803b15156105cf57600080fd5b6102c65a03f115156105e057600080fd5b5050506040518051905015156105f557600080fd5b806008908051906020019061060b929190610c2d565b503373ffffffffffffffffffffffffffffffffffffffff166108fc3073ffffffffffffffffffffffffffffffffffffffff16319081150290604051600060405180830381858888f19350505050151561066357600080fd5b6001600960006101000a81548160ff02191690831515021790555050565b610689610cad565b610691610cad565b60006002805490506040518059106106a65750595b90808252806020026020018201604052509150600090505b60028054905081101561075d576002818154811015156106da57fe5b906000526020600020900160009054906101000a900473ffffffffffffffffffffffffffffffffffffffff16828281518110151561071457fe5b9060200190602002019073ffffffffffffffffffffffffffffffffffffffff16908173ffffffffffffffffffffffffffffffffffffffff168152505080806001019150506106be565b819250505090565b6000600960009054906101000a900460ff1615151561078357600080fd5b600760003373ffffffffffffffffffffffffffffffffffffffff1673ffffffffffffffffffffffffffffffffffffffff16815260200190815260200160002060009054906101000a900460ff161515156107dc57600080fd5b6001600760003373ffffffffffffffffffffffffffffffffffffffff1673ffffffffffffffffffffffffffffffffffffffff16815260200190815260200160002060006101000a81548160ff021916908315150217905550600280548060010182816108489190610cc1565b9160005260206000209001600033909190916101000a81548173ffffffffffffffffffffffffffffffffffffffff021916908373ffffffffffffffffffffffffffffffffffffffff160217905550506001905090565b60088054600181600116156101000203166002900480601f0160208091040260200160405190810160405280929190818152602001828054600181600116156101000203166002900480156109345780601f1061090957610100808354040283529160200191610934565b820191906000526020600020905b81548152906001019060200180831161091757829003601f168201915b505050505081565b610944610ced565b61094c610ced565b600260405180591061095b5750595b908082528060200260200182016040525090506004600060028110151561097e57fe5b015481600081518110151561098f57fe5b9060200190602002018181525050600460016002811015156109ad57fe5b01548160018151811015156109be57fe5b90602001906020020181815250508091505090565b600960009054906101000a900460ff1681565b6000809054906101000a900473ffffffffffffffffffffffffffffffffffffffff1681565b60011515600760003373ffffffffffffffffffffffffffffffffffffffff1673ffffffffffffffffffffffffffffffffffffffff16815260200190815260200160002060009054906101000a900460ff161515141515610a6a57600080fd5b6000600760003373ffffffffffffffffffffffffffffffffffffffff1673ffffffffffffffffffffffffffffffffffffffff16815260200190815260200160002060006101000a81548160ff021916908315150217905550610acb33610ad8565b1515610ad657600080fd5b565b600080600090505b600280549050811015610c22578273ffffffffffffffffffffffffffffffffffffffff16600282815481101515610b1357fe5b906000526020600020900160009054906101000a900473ffffffffffffffffffffffffffffffffffffffff1673ffffffffffffffffffffffffffffffffffffffff161415610c15576002600160028054905003815481101515610b7257fe5b906000526020600020900160009054906101000a900473ffffffffffffffffffffffffffffffffffffffff16600282815481101515610bad57fe5b906000526020600020900160006101000a81548173ffffffffffffffffffffffffffffffffffffffff021916908373ffffffffffffffffffffffffffffffffffffffff1602179055506002805480919060019003610c0b9190610d01565b5060019150610c27565b8080600101915050610ae0565b600091505b50919050565b828054600181600116156101000203166002900490600052602060002090601f016020900481019282601f10610c6e57805160ff1916838001178555610c9c565b82800160010185558215610c9c579182015b82811115610c9b578251825591602001919060010190610c80565b5b509050610ca99190610d2d565b5090565b602060405190810160405280600081525090565b815481835581811511610ce857818360005260206000209182019101610ce79190610d2d565b5b505050565b602060405190810160405280600081525090565b815481835581811511610d2857818360005260206000209182019101610d279190610d2d565b5b505050565b610d4f91905b80821115610d4b576000816000905550600101610d33565b5090565b905600a165627a7a72305820a65432122242e787a2a83ab280ae1d4f7ce034968b442e2b37ecf01bec6912580029",
  "source": "/**\n * @dev Includes Core Data for all Vacation Contracts\n */\n\npragma solidity ^0.4.18;\n\nimport './TravelAgentRegistry.sol';\n\ncontract VacationCore {\n    TravelAgentRegistry public travelAgentRegistry;\n    uint256 public priceInWei;\n    address[] public participants;\n    uint256 public registrationDeadline;\n    uint256[2] public duration;\n    uint public maxParticipants;\n    mapping(address => bool) isParticipant;\n    string public itinerary;\n    bool public scheduled;\n\n\n    function VacationCore(\n        uint256 _priceInWei, \n        uint256 _registrationDeadline, \n        uint256 _dateBegin, \n        uint256 _dateEnd, \n        address[] _whitelist, \n        uint _maxParticipants,\n        address _agentRegistry\n    ) {\n        travelAgentRegistry = TravelAgentRegistry(_agentRegistry);\n        priceInWei = _priceInWei;\n        maxParticipants = _maxParticipants;\n        registrationDeadline = _registrationDeadline;\n        duration = [_dateBegin, _dateEnd];\n    }\n\n    modifier onlyAgent {\n        require(travelAgentRegistry.isRegistered(msg.sender));\n        _;\n    }\n\n    modifier isScheduled {\n        require(scheduled);\n        _;\n    }\n\n    modifier isNotScheduled {\n        require(!scheduled);\n        _;\n    }\n\n    modifier readyForScheduling {\n        require(!scheduled);\n        require(maxParticipants == participants.length || now >= registrationDeadline);\n        _;\n    }\n    \n    function quit() {\n        require(isParticipant[msg.sender] == true);\n        isParticipant[msg.sender] = false;\n        require(deleteParticipant(msg.sender));\n    }\n\n    function buyin() payable public isNotScheduled returns (bool success) {\n        require(!isParticipant[msg.sender]);\n        isParticipant[msg.sender] = true;\n        participants.push(msg.sender);\n        return true;\n    }\n\n    function getParticipants() public view returns (address[]) {\n        address[] memory _participants = new address[](participants.length);\n        for (uint256 i = 0; i < participants.length; i++) {\n            _participants[i] = participants[i];\n        }\n        return _participants;\n    }\n\n    function deleteParticipant(address participant) internal returns (bool success) {\n        for (uint256 i = 0; i < participants.length; i++) {\n            if(participants[i] == participant) {\n                participants[i] = participants[participants.length - 1];\n                participants.length--;\n                return true;\n            }\n        }\n        return false;\n    }\n\n    function getDuration() public view returns (uint256[]) {\n        uint256[] memory _duration = new uint256[](2);\n        _duration[0] = duration[0];\n        _duration[1] = duration[1];\n        return _duration;\n    }\n    \n    function agentSubmitVacation(string _itinerary) readyForScheduling onlyAgent {\n        itinerary = _itinerary;\n        msg.sender.transfer(this.balance);\n        scheduled = true;\n    }\n\n    function() {\n        throw;\n    }\n}",
  "sourcePath": "/home/deon/sites/aepp/aepp-blockchain/contracts/VacationCore.sol",
  "compiler": {
    "name": "solc",
    "version": "0.4.18+commit.9cf6e910.Emscripten.clang"
  },
  "schemaVersion": "1.0.1",
  "updatedAt": "2017-12-05T01:07:56.006Z"
}