{
  "contractName": "VacationCore",
  "abi": [
    {
      "constant": true,
      "inputs": [],
      "name": "registrationDeadline",
      "outputs": [
        {
          "name": "",
          "type": "uint256"
        }
      ],
      "payable": false,
      "stateMutability": "view",
      "type": "function"
    },
    {
      "constant": true,
      "inputs": [],
      "name": "maxParticipants",
      "outputs": [
        {
          "name": "",
          "type": "uint256"
        }
      ],
      "payable": false,
      "stateMutability": "view",
      "type": "function"
    },
    {
      "constant": true,
      "inputs": [
        {
          "name": "",
          "type": "uint256"
        }
      ],
      "name": "duration",
      "outputs": [
        {
          "name": "",
          "type": "uint256"
        }
      ],
      "payable": false,
      "stateMutability": "view",
      "type": "function"
    },
    {
      "constant": true,
      "inputs": [
        {
          "name": "",
          "type": "uint256"
        }
      ],
      "name": "participants",
      "outputs": [
        {
          "name": "",
          "type": "address"
        }
      ],
      "payable": false,
      "stateMutability": "view",
      "type": "function"
    },
    {
      "constant": true,
      "inputs": [],
      "name": "priceInWei",
      "outputs": [
        {
          "name": "",
          "type": "uint256"
        }
      ],
      "payable": false,
      "stateMutability": "view",
      "type": "function"
    },
    {
      "constant": false,
      "inputs": [
        {
          "name": "_itinerary",
          "type": "string"
        }
      ],
      "name": "agentSubmitVacation",
      "outputs": [],
      "payable": false,
      "stateMutability": "nonpayable",
      "type": "function"
    },
    {
      "constant": true,
      "inputs": [],
      "name": "getParticipants",
      "outputs": [
        {
          "name": "",
          "type": "address[]"
        }
      ],
      "payable": false,
      "stateMutability": "view",
      "type": "function"
    },
    {
      "constant": false,
      "inputs": [],
      "name": "buyin",
      "outputs": [
        {
          "name": "success",
          "type": "bool"
        }
      ],
      "payable": true,
      "stateMutability": "payable",
      "type": "function"
    },
    {
      "constant": true,
      "inputs": [],
      "name": "itinerary",
      "outputs": [
        {
          "name": "",
          "type": "string"
        }
      ],
      "payable": false,
      "stateMutability": "view",
      "type": "function"
    },
    {
      "constant": true,
      "inputs": [],
      "name": "getDuration",
      "outputs": [
        {
          "name": "",
          "type": "uint256[]"
        }
      ],
      "payable": false,
      "stateMutability": "view",
      "type": "function"
    },
    {
      "constant": true,
      "inputs": [],
      "name": "scheduled",
      "outputs": [
        {
          "name": "",
          "type": "bool"
        }
      ],
      "payable": false,
      "stateMutability": "view",
      "type": "function"
    },
    {
      "constant": true,
      "inputs": [],
      "name": "travelAgentRegistry",
      "outputs": [
        {
          "name": "",
          "type": "address"
        }
      ],
      "payable": false,
      "stateMutability": "view",
      "type": "function"
    },
    {
      "constant": false,
      "inputs": [],
      "name": "quit",
      "outputs": [],
      "payable": false,
      "stateMutability": "nonpayable",
      "type": "function"
    },
    {
      "inputs": [
        {
          "name": "_priceInWei",
          "type": "uint256"
        },
        {
          "name": "_registrationDeadline",
          "type": "uint256"
        },
        {
          "name": "_dateBegin",
          "type": "uint256"
        },
        {
          "name": "_dateEnd",
          "type": "uint256"
        },
        {
          "name": "_whitelist",
          "type": "address[]"
        },
        {
          "name": "_maxParticipants",
          "type": "uint256"
        },
        {
          "name": "_agentRegistry",
          "type": "address"
        }
      ],
      "payable": false,
      "stateMutability": "nonpayable",
      "type": "constructor"
    },
    {
      "payable": true,
      "stateMutability": "payable",
      "type": "fallback"
    }
  ],
  "bytecode": "0x6060604052341561000f57600080fd5b604051610ed2380380610ed283398101604052808051906020019091908051906020019091908051906020019091908051906020019091908051820191906020018051906020019091908051906020019091905050806000806101000a81548173ffffffffffffffffffffffffffffffffffffffff021916908373ffffffffffffffffffffffffffffffffffffffff16021790555086600181905550816006819055508560038190555060408051908101604052808681526020018581525060049060026100de9291906100eb565b5050505050505050610150565b826002810192821561011a579160200282015b828111156101195782518255916020019190600101906100fe565b5b509050610127919061012b565b5090565b61014d91905b80821115610149576000816000905550600101610131565b5090565b90565b610d738061015f6000396000f3006060604052600436106100c5576000357c0100000000000000000000000000000000000000000000000000000000900463ffffffff16806311184392146100ca57806324924bf7146100f357806335bc54621461011c57806335c1d349146101535780633c8da588146101b657806354583bd4146101df5780635aa68ac01461023c57806369766079146102a65780636fa17a4d146102c8578063ad2e8c9b14610356578063c615b433146103c0578063dc4d6181146103ed578063fc2b8cc314610442575b600080fd5b34156100d557600080fd5b6100dd610457565b6040518082815260200191505060405180910390f35b34156100fe57600080fd5b61010661045d565b6040518082815260200191505060405180910390f35b341561012757600080fd5b61013d6004808035906020019091905050610463565b6040518082815260200191505060405180910390f35b341561015e57600080fd5b610174600480803590602001909190505061047d565b604051808273ffffffffffffffffffffffffffffffffffffffff1673ffffffffffffffffffffffffffffffffffffffff16815260200191505060405180910390f35b34156101c157600080fd5b6101c96104bc565b6040518082815260200191505060405180910390f35b34156101ea57600080fd5b61023a600480803590602001908201803590602001908080601f016020809104026020016040519081016040528093929190818152602001838380828437820191505050505050919050506104c2565b005b341561024757600080fd5b61024f610676565b6040518080602001828103825283818151815260200191508051906020019060200280838360005b83811015610292578082015181840152602081019050610277565b505050509050019250505060405180910390f35b6102ae61075a565b604051808215151515815260200191505060405180910390f35b34156102d357600080fd5b6102db610893565b6040518080602001828103825283818151815260200191508051906020019080838360005b8381101561031b578082015181840152602081019050610300565b50505050905090810190601f1680156103485780820380516001836020036101000a031916815260200191505b509250505060405180910390f35b341561036157600080fd5b610369610931565b6040518080602001828103825283818151815260200191508051906020019060200280838360005b838110156103ac578082015181840152602081019050610391565b505050509050019250505060405180910390f35b34156103cb57600080fd5b6103d36109c8565b604051808215151515815260200191505060405180910390f35b34156103f857600080fd5b6104006109db565b604051808273ffffffffffffffffffffffffffffffffffffffff1673ffffffffffffffffffffffffffffffffffffffff16815260200191505060405180910390f35b341561044d57600080fd5b610455610a00565b005b60035481565b60065481565b60048160028110151561047257fe5b016000915090505481565b60028181548110151561048c57fe5b90600052602060002090016000915054906101000a900473ffffffffffffffffffffffffffffffffffffffff1681565b60015481565b600960009054906101000a900460ff161515156104de57600080fd5b60028054905060065414806104f557506003544210155b151561050057600080fd5b6000809054906101000a900473ffffffffffffffffffffffffffffffffffffffff1673ffffffffffffffffffffffffffffffffffffffff1663c3c5a547336000604051602001526040518263ffffffff167c0100000000000000000000000000000000000000000000000000000000028152600401808273ffffffffffffffffffffffffffffffffffffffff1673ffffffffffffffffffffffffffffffffffffffff168152602001915050602060405180830381600087803b15156105c457600080fd5b6102c65a03f115156105d557600080fd5b5050506040518051905015156105ea57600080fd5b8060089080519060200190610600929190610c22565b503373ffffffffffffffffffffffffffffffffffffffff166108fc3073ffffffffffffffffffffffffffffffffffffffff16319081150290604051600060405180830381858888f19350505050151561065857600080fd5b6001600960006101000a81548160ff02191690831515021790555050565b61067e610ca2565b610686610ca2565b600060028054905060405180591061069b5750595b90808252806020026020018201604052509150600090505b600280549050811015610752576002818154811015156106cf57fe5b906000526020600020900160009054906101000a900473ffffffffffffffffffffffffffffffffffffffff16828281518110151561070957fe5b9060200190602002019073ffffffffffffffffffffffffffffffffffffffff16908173ffffffffffffffffffffffffffffffffffffffff168152505080806001019150506106b3565b819250505090565b6000600960009054906101000a900460ff1615151561077857600080fd5b600760003373ffffffffffffffffffffffffffffffffffffffff1673ffffffffffffffffffffffffffffffffffffffff16815260200190815260200160002060009054906101000a900460ff161515156107d157600080fd5b6001600760003373ffffffffffffffffffffffffffffffffffffffff1673ffffffffffffffffffffffffffffffffffffffff16815260200190815260200160002060006101000a81548160ff0219169083151502179055506002805480600101828161083d9190610cb6565b9160005260206000209001600033909190916101000a81548173ffffffffffffffffffffffffffffffffffffffff021916908373ffffffffffffffffffffffffffffffffffffffff160217905550506001905090565b60088054600181600116156101000203166002900480601f0160208091040260200160405190810160405280929190818152602001828054600181600116156101000203166002900480156109295780601f106108fe57610100808354040283529160200191610929565b820191906000526020600020905b81548152906001019060200180831161090c57829003601f168201915b505050505081565b610939610ce2565b610941610ce2565b60026040518059106109505750595b908082528060200260200182016040525090506004600060028110151561097357fe5b015481600081518110151561098457fe5b9060200190602002018181525050600460016002811015156109a257fe5b01548160018151811015156109b357fe5b90602001906020020181815250508091505090565b600960009054906101000a900460ff1681565b6000809054906101000a900473ffffffffffffffffffffffffffffffffffffffff1681565b60011515600760003373ffffffffffffffffffffffffffffffffffffffff1673ffffffffffffffffffffffffffffffffffffffff16815260200190815260200160002060009054906101000a900460ff161515141515610a5f57600080fd5b6000600760003373ffffffffffffffffffffffffffffffffffffffff1673ffffffffffffffffffffffffffffffffffffffff16815260200190815260200160002060006101000a81548160ff021916908315150217905550610ac033610acd565b1515610acb57600080fd5b565b600080600090505b600280549050811015610c17578273ffffffffffffffffffffffffffffffffffffffff16600282815481101515610b0857fe5b906000526020600020900160009054906101000a900473ffffffffffffffffffffffffffffffffffffffff1673ffffffffffffffffffffffffffffffffffffffff161415610c0a576002600160028054905003815481101515610b6757fe5b906000526020600020900160009054906101000a900473ffffffffffffffffffffffffffffffffffffffff16600282815481101515610ba257fe5b906000526020600020900160006101000a81548173ffffffffffffffffffffffffffffffffffffffff021916908373ffffffffffffffffffffffffffffffffffffffff1602179055506002805480919060019003610c009190610cf6565b5060019150610c1c565b8080600101915050610ad5565b600091505b50919050565b828054600181600116156101000203166002900490600052602060002090601f016020900481019282601f10610c6357805160ff1916838001178555610c91565b82800160010185558215610c91579182015b82811115610c90578251825591602001919060010190610c75565b5b509050610c9e9190610d22565b5090565b602060405190810160405280600081525090565b815481835581811511610cdd57818360005260206000209182019101610cdc9190610d22565b5b505050565b602060405190810160405280600081525090565b815481835581811511610d1d57818360005260206000209182019101610d1c9190610d22565b5b505050565b610d4491905b80821115610d40576000816000905550600101610d28565b5090565b905600a165627a7a723058209ee4ba0176ee6b9a15c0ffb457b37d4906e49b128a67440a4a8a9ce52fadecb30029",
  "source": "/**\n * @dev Includes Core Data for all Vacation Contracts\n */\n\npragma solidity ^0.4.18;\n\nimport './TravelAgentRegistry.sol';\n\ncontract VacationCore {\n    TravelAgentRegistry public travelAgentRegistry;\n    uint256 public priceInWei;\n    address[] public participants;\n    uint256 public registrationDeadline;\n    uint256[2] public duration;\n    uint public maxParticipants;\n    mapping(address => bool) isParticipant;\n    string public itinerary;\n    bool public scheduled;\n\n\n    function VacationCore(\n        uint256 _priceInWei, \n        uint256 _registrationDeadline, \n        uint256 _dateBegin, \n        uint256 _dateEnd, \n        address[] _whitelist, \n        uint _maxParticipants,\n        address _agentRegistry\n    ) {\n        travelAgentRegistry = TravelAgentRegistry(_agentRegistry);\n        priceInWei = _priceInWei;\n        maxParticipants = _maxParticipants;\n        registrationDeadline = _registrationDeadline;\n        duration = [_dateBegin, _dateEnd];\n    }\n\n    modifier onlyAgent {\n        require(travelAgentRegistry.isRegistered(msg.sender));\n        _;\n    }\n\n    modifier isScheduled {\n        require(scheduled);\n        _;\n    }\n\n    modifier isNotScheduled {\n        require(!scheduled);\n        _;\n    }\n\n    modifier readyForScheduling {\n        require(!scheduled);\n        require(maxParticipants == participants.length || now >= registrationDeadline);\n        _;\n    }\n    \n    function quit() {\n        require(isParticipant[msg.sender] == true);\n        isParticipant[msg.sender] = false;\n        require(deleteParticipant(msg.sender));\n    }\n\n    function buyin() payable public isNotScheduled returns (bool success) {\n        require(!isParticipant[msg.sender]);\n        isParticipant[msg.sender] = true;\n        participants.push(msg.sender);\n        return true;\n    }\n\n    function getParticipants() public view returns (address[]) {\n        address[] memory _participants = new address[](participants.length);\n        for (uint256 i = 0; i < participants.length; i++) {\n            _participants[i] = participants[i];\n        }\n        return _participants;\n    }\n\n    function deleteParticipant(address participant) internal returns (bool success) {\n        for (uint256 i = 0; i < participants.length; i++) {\n            if(participants[i] == participant) {\n                participants[i] = participants[participants.length - 1];\n                participants.length--;\n                return true;\n            }\n        }\n        return false;\n    }\n\n    function getDuration() public view returns (uint256[]) {\n        uint256[] memory _duration = new uint256[](2);\n        _duration[0] = duration[0];\n        _duration[1] = duration[1];\n        return _duration;\n    }\n    \n    function agentSubmitVacation(string _itinerary) readyForScheduling onlyAgent {\n        itinerary = _itinerary;\n        msg.sender.transfer(this.balance);\n        scheduled = true;\n    }\n\n    function() payable public {\n        throw;\n    }\n}",
  "sourcePath": "/home/deon/sites/aepp/aepp-blockchain/contracts/VacationCore.sol",
  "compiler": {
    "name": "solc",
    "version": "0.4.18+commit.9cf6e910.Emscripten.clang"
  },
  "schemaVersion": "1.0.1",
  "updatedAt": "2017-12-09T21:30:53.793Z"
}