{
  "contractName": "Vacation",
  "abi": [
    {
      "constant": true,
      "inputs": [],
      "name": "registrationDeadline",
      "outputs": [
        {
          "name": "",
          "type": "uint256"
        }
      ],
      "payable": false,
      "stateMutability": "view",
      "type": "function"
    },
    {
      "constant": true,
      "inputs": [],
      "name": "maxParticipants",
      "outputs": [
        {
          "name": "",
          "type": "uint256"
        }
      ],
      "payable": false,
      "stateMutability": "view",
      "type": "function"
    },
    {
      "constant": true,
      "inputs": [
        {
          "name": "",
          "type": "uint256"
        }
      ],
      "name": "duration",
      "outputs": [
        {
          "name": "",
          "type": "uint256"
        }
      ],
      "payable": false,
      "stateMutability": "view",
      "type": "function"
    },
    {
      "constant": true,
      "inputs": [
        {
          "name": "",
          "type": "uint256"
        }
      ],
      "name": "participants",
      "outputs": [
        {
          "name": "",
          "type": "address"
        }
      ],
      "payable": false,
      "stateMutability": "view",
      "type": "function"
    },
    {
      "constant": true,
      "inputs": [],
      "name": "priceInWei",
      "outputs": [
        {
          "name": "",
          "type": "uint256"
        }
      ],
      "payable": false,
      "stateMutability": "view",
      "type": "function"
    },
    {
      "constant": false,
      "inputs": [
        {
          "name": "_itinerary",
          "type": "string"
        }
      ],
      "name": "agentSubmitVacation",
      "outputs": [],
      "payable": false,
      "stateMutability": "nonpayable",
      "type": "function"
    },
    {
      "constant": true,
      "inputs": [],
      "name": "getParticipants",
      "outputs": [
        {
          "name": "",
          "type": "address[]"
        }
      ],
      "payable": false,
      "stateMutability": "view",
      "type": "function"
    },
    {
      "constant": false,
      "inputs": [],
      "name": "buyin",
      "outputs": [
        {
          "name": "success",
          "type": "bool"
        }
      ],
      "payable": true,
      "stateMutability": "payable",
      "type": "function"
    },
    {
      "constant": true,
      "inputs": [],
      "name": "itinerary",
      "outputs": [
        {
          "name": "",
          "type": "string"
        }
      ],
      "payable": false,
      "stateMutability": "view",
      "type": "function"
    },
    {
      "constant": true,
      "inputs": [],
      "name": "getDuration",
      "outputs": [
        {
          "name": "",
          "type": "uint256[]"
        }
      ],
      "payable": false,
      "stateMutability": "view",
      "type": "function"
    },
    {
      "constant": true,
      "inputs": [],
      "name": "scheduled",
      "outputs": [
        {
          "name": "",
          "type": "bool"
        }
      ],
      "payable": false,
      "stateMutability": "view",
      "type": "function"
    },
    {
      "constant": true,
      "inputs": [],
      "name": "travelAgentRegistry",
      "outputs": [
        {
          "name": "",
          "type": "address"
        }
      ],
      "payable": false,
      "stateMutability": "view",
      "type": "function"
    },
    {
      "constant": false,
      "inputs": [],
      "name": "donate",
      "outputs": [],
      "payable": true,
      "stateMutability": "payable",
      "type": "function"
    },
    {
      "constant": false,
      "inputs": [],
      "name": "quit",
      "outputs": [],
      "payable": false,
      "stateMutability": "nonpayable",
      "type": "function"
    },
    {
      "inputs": [
        {
          "name": "_priceInWei",
          "type": "uint256"
        },
        {
          "name": "_registrationDeadline",
          "type": "uint256"
        },
        {
          "name": "_dateBegin",
          "type": "uint256"
        },
        {
          "name": "_dateEnd",
          "type": "uint256"
        },
        {
          "name": "_whitelist",
          "type": "address[]"
        },
        {
          "name": "_maxParticipants",
          "type": "uint256"
        },
        {
          "name": "_agentRegistry",
          "type": "address"
        }
      ],
      "payable": false,
      "stateMutability": "nonpayable",
      "type": "constructor"
    },
    {
      "payable": false,
      "stateMutability": "nonpayable",
      "type": "fallback"
    }
  ],
  "bytecode": "0x6060604052341561000f57600080fd5b604051610f43380380610f438339810160405280805190602001909190805190602001909190805190602001909190805190602001909190805182019190602001805190602001909190805190602001909190505086868686868686806000806101000a81548173ffffffffffffffffffffffffffffffffffffffff021916908373ffffffffffffffffffffffffffffffffffffffff16021790555086600181905550816006819055508560038190555060408051908101604052808681526020018581525060049060026100e59291906100f9565b50505050505050505050505050505061015e565b8260028101928215610128579160200282015b8281111561012757825182559160200191906001019061010c565b5b5090506101359190610139565b5090565b61015b91905b8082111561015757600081600090555060010161013f565b5090565b90565b610dd68061016d6000396000f3006060604052600436106100d0576000357c0100000000000000000000000000000000000000000000000000000000900463ffffffff16806311184392146100e057806324924bf71461010957806335bc54621461013257806335c1d349146101695780633c8da588146101cc57806354583bd4146101f55780635aa68ac01461025257806369766079146102bc5780636fa17a4d146102de578063ad2e8c9b1461036c578063c615b433146103d6578063dc4d618114610403578063ed88c68e14610458578063fc2b8cc314610462575b34156100db57600080fd5b600080fd5b34156100eb57600080fd5b6100f3610477565b6040518082815260200191505060405180910390f35b341561011457600080fd5b61011c61047d565b6040518082815260200191505060405180910390f35b341561013d57600080fd5b6101536004808035906020019091905050610483565b6040518082815260200191505060405180910390f35b341561017457600080fd5b61018a600480803590602001909190505061049d565b604051808273ffffffffffffffffffffffffffffffffffffffff1673ffffffffffffffffffffffffffffffffffffffff16815260200191505060405180910390f35b34156101d757600080fd5b6101df6104dc565b6040518082815260200191505060405180910390f35b341561020057600080fd5b610250600480803590602001908201803590602001908080601f016020809104026020016040519081016040528093929190818152602001838380828437820191505050505050919050506104e2565b005b341561025d57600080fd5b610265610696565b6040518080602001828103825283818151815260200191508051906020019060200280838360005b838110156102a857808201518184015260208101905061028d565b505050509050019250505060405180910390f35b6102c461077a565b604051808215151515815260200191505060405180910390f35b34156102e957600080fd5b6102f16107bb565b6040518080602001828103825283818151815260200191508051906020019080838360005b83811015610331578082015181840152602081019050610316565b50505050905090810190601f16801561035e5780820380516001836020036101000a031916815260200191505b509250505060405180910390f35b341561037757600080fd5b61037f610859565b6040518080602001828103825283818151815260200191508051906020019060200280838360005b838110156103c25780820151818401526020810190506103a7565b505050509050019250505060405180910390f35b34156103e157600080fd5b6103e96108f0565b604051808215151515815260200191505060405180910390f35b341561040e57600080fd5b610416610903565b604051808273ffffffffffffffffffffffffffffffffffffffff1673ffffffffffffffffffffffffffffffffffffffff16815260200191505060405180910390f35b610460610928565b005b341561046d57600080fd5b61047561092a565b005b60035481565b60065481565b60048160028110151561049257fe5b016000915090505481565b6002818154811015156104ac57fe5b90600052602060002090016000915054906101000a900473ffffffffffffffffffffffffffffffffffffffff1681565b60015481565b600960009054906101000a900460ff161515156104fe57600080fd5b600280549050600654148061051557506003544210155b151561052057600080fd5b6000809054906101000a900473ffffffffffffffffffffffffffffffffffffffff1673ffffffffffffffffffffffffffffffffffffffff1663c3c5a547336000604051602001526040518263ffffffff167c0100000000000000000000000000000000000000000000000000000000028152600401808273ffffffffffffffffffffffffffffffffffffffff1673ffffffffffffffffffffffffffffffffffffffff168152602001915050602060405180830381600087803b15156105e457600080fd5b6102c65a03f115156105f557600080fd5b50505060405180519050151561060a57600080fd5b8060089080519060200190610620929190610c85565b503373ffffffffffffffffffffffffffffffffffffffff166108fc3073ffffffffffffffffffffffffffffffffffffffff16319081150290604051600060405180830381858888f19350505050151561067857600080fd5b6001600960006101000a81548160ff02191690831515021790555050565b61069e610d05565b6106a6610d05565b60006002805490506040518059106106bb5750595b90808252806020026020018201604052509150600090505b600280549050811015610772576002818154811015156106ef57fe5b906000526020600020900160009054906101000a900473ffffffffffffffffffffffffffffffffffffffff16828281518110151561072957fe5b9060200190602002019073ffffffffffffffffffffffffffffffffffffffff16908173ffffffffffffffffffffffffffffffffffffffff168152505080806001019150506106d3565b819250505090565b600060065460028054905010151561079157600080fd5b600154341415156107a157600080fd5b6107a96109f7565b15156107b457600080fd5b6001905090565b60088054600181600116156101000203166002900480601f0160208091040260200160405190810160405280929190818152602001828054600181600116156101000203166002900480156108515780601f1061082657610100808354040283529160200191610851565b820191906000526020600020905b81548152906001019060200180831161083457829003601f168201915b505050505081565b610861610d19565b610869610d19565b60026040518059106108785750595b908082528060200260200182016040525090506004600060028110151561089b57fe5b01548160008151811015156108ac57fe5b9060200190602002018181525050600460016002811015156108ca57fe5b01548160018151811015156108db57fe5b90602001906020020181815250508091505090565b600960009054906101000a900460ff1681565b6000809054906101000a900473ffffffffffffffffffffffffffffffffffffffff1681565b565b60011515600760003373ffffffffffffffffffffffffffffffffffffffff1673ffffffffffffffffffffffffffffffffffffffff16815260200190815260200160002060009054906101000a900460ff16151514151561098957600080fd5b6000600760003373ffffffffffffffffffffffffffffffffffffffff1673ffffffffffffffffffffffffffffffffffffffff16815260200190815260200160002060006101000a81548160ff0219169083151502179055506109ea33610b30565b15156109f557600080fd5b565b6000600960009054906101000a900460ff16151515610a1557600080fd5b600760003373ffffffffffffffffffffffffffffffffffffffff1673ffffffffffffffffffffffffffffffffffffffff16815260200190815260200160002060009054906101000a900460ff16151515610a6e57600080fd5b6001600760003373ffffffffffffffffffffffffffffffffffffffff1673ffffffffffffffffffffffffffffffffffffffff16815260200190815260200160002060006101000a81548160ff02191690831515021790555060028054806001018281610ada9190610d2d565b9160005260206000209001600033909190916101000a81548173ffffffffffffffffffffffffffffffffffffffff021916908373ffffffffffffffffffffffffffffffffffffffff160217905550506001905090565b600080600090505b600280549050811015610c7a578273ffffffffffffffffffffffffffffffffffffffff16600282815481101515610b6b57fe5b906000526020600020900160009054906101000a900473ffffffffffffffffffffffffffffffffffffffff1673ffffffffffffffffffffffffffffffffffffffff161415610c6d576002600160028054905003815481101515610bca57fe5b906000526020600020900160009054906101000a900473ffffffffffffffffffffffffffffffffffffffff16600282815481101515610c0557fe5b906000526020600020900160006101000a81548173ffffffffffffffffffffffffffffffffffffffff021916908373ffffffffffffffffffffffffffffffffffffffff1602179055506002805480919060019003610c639190610d59565b5060019150610c7f565b8080600101915050610b38565b600091505b50919050565b828054600181600116156101000203166002900490600052602060002090601f016020900481019282601f10610cc657805160ff1916838001178555610cf4565b82800160010185558215610cf4579182015b82811115610cf3578251825591602001919060010190610cd8565b5b509050610d019190610d85565b5090565b602060405190810160405280600081525090565b602060405190810160405280600081525090565b815481835581811511610d5457818360005260206000209182019101610d539190610d85565b5b505050565b815481835581811511610d8057818360005260206000209182019101610d7f9190610d85565b5b505050565b610da791905b80821115610da3576000816000905550600101610d8b565b5090565b905600a165627a7a7230582040d5aecf415ad6c5140ff84a4d8fbfa87e0eebd622d25f0d31691036223e7d8e0029",
  "source": "/**\n * @dev Vacation where each participant has to chip in equal amounts\n */\n\npragma solidity ^0.4.18;\n\nimport './VacationCore.sol';\n\ncontract Vacation is VacationCore {\n\n    /*\n     * @param priceInEther Price or Min. Price each person pays in equalPayment is true \n     * @dateBegin date the trip will begin\n     * @dateEnd   date the trip will end\n     * @whitelist users who you allow to participate, leave empty if open to the world\n     */\n\n    function Vacation(uint256 _priceInWei, uint _registrationDeadline, uint _dateBegin, uint _dateEnd, address[] _whitelist, uint _maxParticipants, address _agentRegistry)\n    VacationCore(_priceInWei, _registrationDeadline, _dateBegin, _dateEnd, _whitelist, _maxParticipants, _agentRegistry)  \n    {}\n \n    function buyin() payable public returns (bool success) {\n        require(participants.length < maxParticipants);\n        require(msg.value == priceInWei);\n        require(super.buyin());\n        return true;\n    }\n    \n    function donate() payable  public {}\n\n}",
  "sourcePath": "/home/deon/sites/aepp/aepp-blockchain/contracts/Vacation.sol",
  "compiler": {
    "name": "solc",
    "version": "0.4.18+commit.9cf6e910.Emscripten.clang"
  },
  "schemaVersion": "1.0.1",
  "updatedAt": "2017-12-05T01:07:56.000Z"
}