{
  "contractName": "VacationFactory",
  "abi": [
    {
      "constant": false,
      "inputs": [
        {
          "name": "_priceInWei",
          "type": "uint256"
        },
        {
          "name": "_registrationDeadline",
          "type": "uint256"
        },
        {
          "name": "_dateBegin",
          "type": "uint256"
        },
        {
          "name": "_dateEnd",
          "type": "uint256"
        },
        {
          "name": "_whitelist",
          "type": "address[]"
        },
        {
          "name": "maxParticipants",
          "type": "uint256"
        }
      ],
      "name": "createVacation",
      "outputs": [
        {
          "name": "vacation",
          "type": "address"
        }
      ],
      "payable": false,
      "stateMutability": "nonpayable",
      "type": "function"
    },
    {
      "constant": true,
      "inputs": [
        {
          "name": "_priceInWei",
          "type": "uint256"
        },
        {
          "name": "_registrationDeadline",
          "type": "uint256"
        },
        {
          "name": "_dateBegin",
          "type": "uint256"
        },
        {
          "name": "_dateEnd",
          "type": "uint256"
        },
        {
          "name": "_whitelist",
          "type": "address[]"
        },
        {
          "name": "maxParticipants",
          "type": "uint256"
        }
      ],
      "name": "agentRegistry",
      "outputs": [
        {
          "name": "",
          "type": "address"
        }
      ],
      "payable": false,
      "stateMutability": "view",
      "type": "function"
    },
    {
      "constant": true,
      "inputs": [
        {
          "name": "_index",
          "type": "uint256"
        }
      ],
      "name": "getLonerByIndex",
      "outputs": [
        {
          "name": "",
          "type": "address"
        }
      ],
      "payable": false,
      "stateMutability": "view",
      "type": "function"
    },
    {
      "constant": false,
      "inputs": [
        {
          "name": "_priceInWei",
          "type": "uint256"
        },
        {
          "name": "_registrationDeadline",
          "type": "uint256"
        },
        {
          "name": "_dateBegin",
          "type": "uint256"
        },
        {
          "name": "_dateEnd",
          "type": "uint256"
        },
        {
          "name": "_whitelist",
          "type": "address[]"
        },
        {
          "name": "maxParticipants",
          "type": "uint256"
        }
      ],
      "name": "createDatenight",
      "outputs": [
        {
          "name": "dateNight",
          "type": "address"
        }
      ],
      "payable": false,
      "stateMutability": "nonpayable",
      "type": "function"
    },
    {
      "inputs": [
        {
          "name": "_index",
          "type": "uint256"
        }
      ],
      "payable": false,
      "stateMutability": "view",
      "type": "function",
      "constant": true,
      "name": "getVacationByIndex",
      "outputs": [
        {
          "name": "",
          "type": "address"
        }
      ]
    },
    {
      "constant": false,
      "inputs": [
        {
          "name": "_priceInWei",
          "type": "uint256"
        },
        {
          "name": "_registrationDeadline",
          "type": "uint256"
        },
        {
          "name": "_dateBegin",
          "type": "uint256"
        },
        {
          "name": "_dateEnd",
          "type": "uint256"
        },
        {
          "name": "_whitelist",
          "type": "address[]"
        },
        {
          "name": "maxParticipants",
          "type": "uint256"
        }
      ],
      "name": "createLoner",
      "outputs": [
        {
          "name": "dateNight",
          "type": "address"
        }
      ],
      "payable": false,
      "stateMutability": "nonpayable",
      "type": "function"
    },
    {
      "constant": true,
      "inputs": [],
      "name": "getDateNightLength",
      "outputs": [
        {
          "name": "",
          "type": "uint256"
        }
      ],
      "payable": false,
      "stateMutability": "view",
      "type": "function"
    },
    {
      "constant": true,
      "inputs": [],
      "name": "getVacationLength",
      "outputs": [
        {
          "name": "",
          "type": "uint256"
        }
      ],
      "payable": false,
      "stateMutability": "view",
      "type": "function"
    },
    {
      "constant": true,
      "inputs": [
        {
          "name": "_index",
          "type": "uint256"
        }
      ],
      "name": "getDateNightByIndex",
      "outputs": [
        {
          "name": "",
          "type": "address"
        }
      ],
      "payable": false,
      "stateMutability": "view",
      "type": "function"
    },
    {
      "constant": true,
      "inputs": [],
      "name": "getLonerLength",
      "outputs": [
        {
          "name": "",
          "type": "uint256"
        }
      ],
      "payable": false,
      "stateMutability": "view",
      "type": "function"
    },
    {
      "inputs": [
        {
          "name": "_agentRegistry",
          "type": "address"
        }
      ],
      "payable": false,
      "stateMutability": "nonpayable",
      "type": "constructor"
    }
  ],
  "bytecode": "0x6060604052341561000f57600080fd5b604051602080613a0b8339810160405280805190602001909190505080600360006101000a81548173ffffffffffffffffffffffffffffffffffffffff021916908373ffffffffffffffffffffffffffffffffffffffff1602179055505061398f8061007c6000396000f3006060604052600436106100a4576000357c0100000000000000000000000000000000000000000000000000000000900463ffffffff16806307fc00fe146100a95780630d1cfcae146101705780631939dd36146101c5578063445f692d14610228578063531917b5146102ef5780637291783c14610352578063906c2dc2146104195780639cefadc114610442578063a617c44e1461046b578063fdaec333146104ce575b600080fd5b34156100b457600080fd5b61012e6004808035906020019091908035906020019091908035906020019091908035906020019091908035906020019082018035906020019080806020026020016040519081016040528093929190818152602001838360200280828437820191505050505050919080359060200190919050506104f7565b604051808273ffffffffffffffffffffffffffffffffffffffff1673ffffffffffffffffffffffffffffffffffffffff16815260200191505060405180910390f35b341561017b57600080fd5b610183610655565b604051808273ffffffffffffffffffffffffffffffffffffffff1673ffffffffffffffffffffffffffffffffffffffff16815260200191505060405180910390f35b34156101d057600080fd5b6101e6600480803590602001909190505061067b565b604051808273ffffffffffffffffffffffffffffffffffffffff1673ffffffffffffffffffffffffffffffffffffffff16815260200191505060405180910390f35b341561023357600080fd5b6102ad6004808035906020019091908035906020019091908035906020019091908035906020019091908035906020019082018035906020019080806020026020016040519081016040528093929190818152602001838360200280828437820191505050505050919080359060200190919050506106bf565b604051808273ffffffffffffffffffffffffffffffffffffffff1673ffffffffffffffffffffffffffffffffffffffff16815260200191505060405180910390f35b34156102fa57600080fd5b610310600480803590602001909190505061080d565b604051808273ffffffffffffffffffffffffffffffffffffffff1673ffffffffffffffffffffffffffffffffffffffff16815260200191505060405180910390f35b341561035d57600080fd5b6103d7600480803590602001909190803590602001909190803590602001909190803590602001909190803590602001908201803590602001908080602002602001604051908101604052809392919081815260200183836020028082843782019150505050505091908035906020019091905050610850565b604051808273ffffffffffffffffffffffffffffffffffffffff1673ffffffffffffffffffffffffffffffffffffffff16815260200191505060405180910390f35b341561042457600080fd5b61042c61099e565b6040518082815260200191505060405180910390f35b341561044d57600080fd5b6104556109ab565b6040518082815260200191505060405180910390f35b341561047657600080fd5b61048c60048080359060200190919050506109b7565b604051808273ffffffffffffffffffffffffffffffffffffffff1673ffffffffffffffffffffffffffffffffffffffff16815260200191505060405180910390f35b34156104d957600080fd5b6104e16109fb565b6040518082815260200191505060405180910390f35b600080878787878787600360009054906101000a900473ffffffffffffffffffffffffffffffffffffffff1661052b610a08565b80888152602001878152602001868152602001858152602001806020018481526020018373ffffffffffffffffffffffffffffffffffffffff1673ffffffffffffffffffffffffffffffffffffffff168152602001828103825285818151815260200191508051906020019060200280838360005b838110156105bb5780820151818401526020810190506105a0565b5050505090500198505050505050505050604051809103906000f08015156105e257600080fd5b9050600080548060010182816105f89190610a19565b9160005260206000209001600083909190916101000a81548173ffffffffffffffffffffffffffffffffffffffff021916908373ffffffffffffffffffffffffffffffffffffffff16021790555050809150509695505050505050565b600360009054906101000a900473ffffffffffffffffffffffffffffffffffffffff1681565b600060028281548110151561068c57fe5b906000526020600020900160009054906101000a900473ffffffffffffffffffffffffffffffffffffffff169050919050565b60008086868686600360009054906101000a900473ffffffffffffffffffffffffffffffffffffffff166106f1610a45565b80868152602001858152602001848152602001806020018373ffffffffffffffffffffffffffffffffffffffff1673ffffffffffffffffffffffffffffffffffffffff168152602001828103825284818151815260200191508051906020019060200280838360005b8381101561077557808201518184015260208101905061075a565b505050509050019650505050505050604051809103906000f080151561079a57600080fd5b9050600180548060010182816107b09190610a19565b9160005260206000209001600083909190916101000a81548173ffffffffffffffffffffffffffffffffffffffff021916908373ffffffffffffffffffffffffffffffffffffffff16021790555050809150509695505050505050565b6000808281548110151561081d57fe5b906000526020600020900160009054906101000a900473ffffffffffffffffffffffffffffffffffffffff169050919050565b60008086868686600360009054906101000a900473ffffffffffffffffffffffffffffffffffffffff16610882610a56565b80868152602001858152602001848152602001806020018373ffffffffffffffffffffffffffffffffffffffff1673ffffffffffffffffffffffffffffffffffffffff168152602001828103825284818151815260200191508051906020019060200280838360005b838110156109065780820151818401526020810190506108eb565b505050509050019650505050505050604051809103906000f080151561092b57600080fd5b9050600280548060010182816109419190610a19565b9160005260206000209001600083909190916101000a81548173ffffffffffffffffffffffffffffffffffffffff021916908373ffffffffffffffffffffffffffffffffffffffff16021790555050809150509695505050505050565b6000600180549050905090565b60008080549050905090565b60006001828154811015156109c857fe5b906000526020600020900160009054906101000a900473ffffffffffffffffffffffffffffffffffffffff169050919050565b6000600280549050905090565b604051610f388062000a8d83390190565b815481835581811511610a4057818360005260206000209182019101610a3f9190610a67565b5b505050565b604051610f2380620019c583390190565b60405161107c80620028e883390190565b610a8991905b80821115610a85576000816000905550600101610a6d565b5090565b9056006060604052341561000f57600080fd5b604051610f38380380610f388339810160405280805190602001909190805190602001909190805190602001909190805190602001909190805182019190602001805190602001909190805190602001909190505086868686868686806000806101000a81548173ffffffffffffffffffffffffffffffffffffffff021916908373ffffffffffffffffffffffffffffffffffffffff16021790555086600181905550816006819055508560038190555060408051908101604052808681526020018581525060049060026100e59291906100f9565b50505050505050505050505050505061015e565b8260028101928215610128579160200282015b8281111561012757825182559160200191906001019061010c565b5b5090506101359190610139565b5090565b61015b91905b8082111561015757600081600090555060010161013f565b5090565b90565b610dcb8061016d6000396000f3006060604052600436106100d0576000357c0100000000000000000000000000000000000000000000000000000000900463ffffffff16806311184392146100d557806324924bf7146100fe57806335bc54621461012757806335c1d3491461015e5780633c8da588146101c157806354583bd4146101ea5780635aa68ac01461024757806369766079146102b15780636fa17a4d146102d3578063ad2e8c9b14610361578063c615b433146103cb578063dc4d6181146103f8578063ed88c68e1461044d578063fc2b8cc314610457575b600080fd5b34156100e057600080fd5b6100e861046c565b6040518082815260200191505060405180910390f35b341561010957600080fd5b610111610472565b6040518082815260200191505060405180910390f35b341561013257600080fd5b6101486004808035906020019091905050610478565b6040518082815260200191505060405180910390f35b341561016957600080fd5b61017f6004808035906020019091905050610492565b604051808273ffffffffffffffffffffffffffffffffffffffff1673ffffffffffffffffffffffffffffffffffffffff16815260200191505060405180910390f35b34156101cc57600080fd5b6101d46104d1565b6040518082815260200191505060405180910390f35b34156101f557600080fd5b610245600480803590602001908201803590602001908080601f016020809104026020016040519081016040528093929190818152602001838380828437820191505050505050919050506104d7565b005b341561025257600080fd5b61025a61068b565b6040518080602001828103825283818151815260200191508051906020019060200280838360005b8381101561029d578082015181840152602081019050610282565b505050509050019250505060405180910390f35b6102b961076f565b604051808215151515815260200191505060405180910390f35b34156102de57600080fd5b6102e66107b0565b6040518080602001828103825283818151815260200191508051906020019080838360005b8381101561032657808201518184015260208101905061030b565b50505050905090810190601f1680156103535780820380516001836020036101000a031916815260200191505b509250505060405180910390f35b341561036c57600080fd5b61037461084e565b6040518080602001828103825283818151815260200191508051906020019060200280838360005b838110156103b757808201518184015260208101905061039c565b505050509050019250505060405180910390f35b34156103d657600080fd5b6103de6108e5565b604051808215151515815260200191505060405180910390f35b341561040357600080fd5b61040b6108f8565b604051808273ffffffffffffffffffffffffffffffffffffffff1673ffffffffffffffffffffffffffffffffffffffff16815260200191505060405180910390f35b61045561091d565b005b341561046257600080fd5b61046a61091f565b005b60035481565b60065481565b60048160028110151561048757fe5b016000915090505481565b6002818154811015156104a157fe5b90600052602060002090016000915054906101000a900473ffffffffffffffffffffffffffffffffffffffff1681565b60015481565b600960009054906101000a900460ff161515156104f357600080fd5b600280549050600654148061050a57506003544210155b151561051557600080fd5b6000809054906101000a900473ffffffffffffffffffffffffffffffffffffffff1673ffffffffffffffffffffffffffffffffffffffff1663c3c5a547336000604051602001526040518263ffffffff167c0100000000000000000000000000000000000000000000000000000000028152600401808273ffffffffffffffffffffffffffffffffffffffff1673ffffffffffffffffffffffffffffffffffffffff168152602001915050602060405180830381600087803b15156105d957600080fd5b6102c65a03f115156105ea57600080fd5b5050506040518051905015156105ff57600080fd5b8060089080519060200190610615929190610c7a565b503373ffffffffffffffffffffffffffffffffffffffff166108fc3073ffffffffffffffffffffffffffffffffffffffff16319081150290604051600060405180830381858888f19350505050151561066d57600080fd5b6001600960006101000a81548160ff02191690831515021790555050565b610693610cfa565b61069b610cfa565b60006002805490506040518059106106b05750595b90808252806020026020018201604052509150600090505b600280549050811015610767576002818154811015156106e457fe5b906000526020600020900160009054906101000a900473ffffffffffffffffffffffffffffffffffffffff16828281518110151561071e57fe5b9060200190602002019073ffffffffffffffffffffffffffffffffffffffff16908173ffffffffffffffffffffffffffffffffffffffff168152505080806001019150506106c8565b819250505090565b600060065460028054905010151561078657600080fd5b6001543414151561079657600080fd5b61079e6109ec565b15156107a957600080fd5b6001905090565b60088054600181600116156101000203166002900480601f0160208091040260200160405190810160405280929190818152602001828054600181600116156101000203166002900480156108465780601f1061081b57610100808354040283529160200191610846565b820191906000526020600020905b81548152906001019060200180831161082957829003601f168201915b505050505081565b610856610d0e565b61085e610d0e565b600260405180591061086d5750595b908082528060200260200182016040525090506004600060028110151561089057fe5b01548160008151811015156108a157fe5b9060200190602002018181525050600460016002811015156108bf57fe5b01548160018151811015156108d057fe5b90602001906020020181815250508091505090565b600960009054906101000a900460ff1681565b6000809054906101000a900473ffffffffffffffffffffffffffffffffffffffff1681565b565b60011515600760003373ffffffffffffffffffffffffffffffffffffffff1673ffffffffffffffffffffffffffffffffffffffff16815260200190815260200160002060009054906101000a900460ff16151514151561097e57600080fd5b6000600760003373ffffffffffffffffffffffffffffffffffffffff1673ffffffffffffffffffffffffffffffffffffffff16815260200190815260200160002060006101000a81548160ff0219169083151502179055506109df33610b25565b15156109ea57600080fd5b565b6000600960009054906101000a900460ff16151515610a0a57600080fd5b600760003373ffffffffffffffffffffffffffffffffffffffff1673ffffffffffffffffffffffffffffffffffffffff16815260200190815260200160002060009054906101000a900460ff16151515610a6357600080fd5b6001600760003373ffffffffffffffffffffffffffffffffffffffff1673ffffffffffffffffffffffffffffffffffffffff16815260200190815260200160002060006101000a81548160ff02191690831515021790555060028054806001018281610acf9190610d22565b9160005260206000209001600033909190916101000a81548173ffffffffffffffffffffffffffffffffffffffff021916908373ffffffffffffffffffffffffffffffffffffffff160217905550506001905090565b600080600090505b600280549050811015610c6f578273ffffffffffffffffffffffffffffffffffffffff16600282815481101515610b6057fe5b906000526020600020900160009054906101000a900473ffffffffffffffffffffffffffffffffffffffff1673ffffffffffffffffffffffffffffffffffffffff161415610c62576002600160028054905003815481101515610bbf57fe5b906000526020600020900160009054906101000a900473ffffffffffffffffffffffffffffffffffffffff16600282815481101515610bfa57fe5b906000526020600020900160006101000a81548173ffffffffffffffffffffffffffffffffffffffff021916908373ffffffffffffffffffffffffffffffffffffffff1602179055506002805480919060019003610c589190610d4e565b5060019150610c74565b8080600101915050610b2d565b600091505b50919050565b828054600181600116156101000203166002900490600052602060002090601f016020900481019282601f10610cbb57805160ff1916838001178555610ce9565b82800160010185558215610ce9579182015b82811115610ce8578251825591602001919060010190610ccd565b5b509050610cf69190610d7a565b5090565b602060405190810160405280600081525090565b602060405190810160405280600081525090565b815481835581811511610d4957818360005260206000209182019101610d489190610d7a565b5b505050565b815481835581811511610d7557818360005260206000209182019101610d749190610d7a565b5b505050565b610d9c91905b80821115610d98576000816000905550600101610d80565b5090565b905600a165627a7a723058209c3554fcaa0c310e8c18d830e1e4b354c0a10bcb8e9289ce60376fd61a12035600296060604052341561000f57600080fd5b604051610f23380380610f2383398101604052808051906020019091908051906020019091908051906020019091908051820191906020018051906020019091905050600085858585600286806000806101000a81548173ffffffffffffffffffffffffffffffffffffffff021916908373ffffffffffffffffffffffffffffffffffffffff16021790555086600181905550816006819055508560038190555060408051908101604052808681526020018581525060049060026100d59291906100e7565b5050505050505050505050505061014c565b8260028101928215610116579160200282015b828111156101155782518255916020019190600101906100fa565b5b5090506101239190610127565b5090565b61014991905b8082111561014557600081600090555060010161012d565b5090565b90565b610dc88061015b6000396000f3006060604052600436106100d0576000357c0100000000000000000000000000000000000000000000000000000000900463ffffffff16806311184392146100d257806324924bf7146100fb57806335bc54621461012457806335c1d3491461015b5780633c8da588146101be57806354583bd4146101e75780635aa68ac01461024457806369766079146102ae5780636fa17a4d146102d0578063ad2e8c9b1461035e578063c615b433146103c8578063dc4d6181146103f5578063ed88c68e1461044a578063fc2b8cc314610454575b005b34156100dd57600080fd5b6100e5610469565b6040518082815260200191505060405180910390f35b341561010657600080fd5b61010e61046f565b6040518082815260200191505060405180910390f35b341561012f57600080fd5b6101456004808035906020019091905050610475565b6040518082815260200191505060405180910390f35b341561016657600080fd5b61017c600480803590602001909190505061048f565b604051808273ffffffffffffffffffffffffffffffffffffffff1673ffffffffffffffffffffffffffffffffffffffff16815260200191505060405180910390f35b34156101c957600080fd5b6101d16104ce565b6040518082815260200191505060405180910390f35b34156101f257600080fd5b610242600480803590602001908201803590602001908080601f016020809104026020016040519081016040528093929190818152602001838380828437820191505050505050919050506104d4565b005b341561024f57600080fd5b610257610688565b6040518080602001828103825283818151815260200191508051906020019060200280838360005b8381101561029a57808201518184015260208101905061027f565b505050509050019250505060405180910390f35b6102b661076c565b604051808215151515815260200191505060405180910390f35b34156102db57600080fd5b6102e36107ad565b6040518080602001828103825283818151815260200191508051906020019080838360005b83811015610323578082015181840152602081019050610308565b50505050905090810190601f1680156103505780820380516001836020036101000a031916815260200191505b509250505060405180910390f35b341561036957600080fd5b61037161084b565b6040518080602001828103825283818151815260200191508051906020019060200280838360005b838110156103b4578082015181840152602081019050610399565b505050509050019250505060405180910390f35b34156103d357600080fd5b6103db6108e2565b604051808215151515815260200191505060405180910390f35b341561040057600080fd5b6104086108f5565b604051808273ffffffffffffffffffffffffffffffffffffffff1673ffffffffffffffffffffffffffffffffffffffff16815260200191505060405180910390f35b61045261091a565b005b341561045f57600080fd5b61046761091c565b005b60035481565b60065481565b60048160028110151561048457fe5b016000915090505481565b60028181548110151561049e57fe5b90600052602060002090016000915054906101000a900473ffffffffffffffffffffffffffffffffffffffff1681565b60015481565b600960009054906101000a900460ff161515156104f057600080fd5b600280549050600654148061050757506003544210155b151561051257600080fd5b6000809054906101000a900473ffffffffffffffffffffffffffffffffffffffff1673ffffffffffffffffffffffffffffffffffffffff1663c3c5a547336000604051602001526040518263ffffffff167c0100000000000000000000000000000000000000000000000000000000028152600401808273ffffffffffffffffffffffffffffffffffffffff1673ffffffffffffffffffffffffffffffffffffffff168152602001915050602060405180830381600087803b15156105d657600080fd5b6102c65a03f115156105e757600080fd5b5050506040518051905015156105fc57600080fd5b8060089080519060200190610612929190610c77565b503373ffffffffffffffffffffffffffffffffffffffff166108fc3073ffffffffffffffffffffffffffffffffffffffff16319081150290604051600060405180830381858888f19350505050151561066a57600080fd5b6001600960006101000a81548160ff02191690831515021790555050565b610690610cf7565b610698610cf7565b60006002805490506040518059106106ad5750595b90808252806020026020018201604052509150600090505b600280549050811015610764576002818154811015156106e157fe5b906000526020600020900160009054906101000a900473ffffffffffffffffffffffffffffffffffffffff16828281518110151561071b57fe5b9060200190602002019073ffffffffffffffffffffffffffffffffffffffff16908173ffffffffffffffffffffffffffffffffffffffff168152505080806001019150506106c5565b819250505090565b600060065460028054905010151561078357600080fd5b6001543414151561079357600080fd5b61079b6109e9565b15156107a657600080fd5b6001905090565b60088054600181600116156101000203166002900480601f0160208091040260200160405190810160405280929190818152602001828054600181600116156101000203166002900480156108435780601f1061081857610100808354040283529160200191610843565b820191906000526020600020905b81548152906001019060200180831161082657829003601f168201915b505050505081565b610853610d0b565b61085b610d0b565b600260405180591061086a5750595b908082528060200260200182016040525090506004600060028110151561088d57fe5b015481600081518110151561089e57fe5b9060200190602002018181525050600460016002811015156108bc57fe5b01548160018151811015156108cd57fe5b90602001906020020181815250508091505090565b600960009054906101000a900460ff1681565b6000809054906101000a900473ffffffffffffffffffffffffffffffffffffffff1681565b565b60011515600760003373ffffffffffffffffffffffffffffffffffffffff1673ffffffffffffffffffffffffffffffffffffffff16815260200190815260200160002060009054906101000a900460ff16151514151561097b57600080fd5b6000600760003373ffffffffffffffffffffffffffffffffffffffff1673ffffffffffffffffffffffffffffffffffffffff16815260200190815260200160002060006101000a81548160ff0219169083151502179055506109dc33610b22565b15156109e757600080fd5b565b6000600960009054906101000a900460ff16151515610a0757600080fd5b600760003373ffffffffffffffffffffffffffffffffffffffff1673ffffffffffffffffffffffffffffffffffffffff16815260200190815260200160002060009054906101000a900460ff16151515610a6057600080fd5b6001600760003373ffffffffffffffffffffffffffffffffffffffff1673ffffffffffffffffffffffffffffffffffffffff16815260200190815260200160002060006101000a81548160ff02191690831515021790555060028054806001018281610acc9190610d1f565b9160005260206000209001600033909190916101000a81548173ffffffffffffffffffffffffffffffffffffffff021916908373ffffffffffffffffffffffffffffffffffffffff160217905550506001905090565b600080600090505b600280549050811015610c6c578273ffffffffffffffffffffffffffffffffffffffff16600282815481101515610b5d57fe5b906000526020600020900160009054906101000a900473ffffffffffffffffffffffffffffffffffffffff1673ffffffffffffffffffffffffffffffffffffffff161415610c5f576002600160028054905003815481101515610bbc57fe5b906000526020600020900160009054906101000a900473ffffffffffffffffffffffffffffffffffffffff16600282815481101515610bf757fe5b906000526020600020900160006101000a81548173ffffffffffffffffffffffffffffffffffffffff021916908373ffffffffffffffffffffffffffffffffffffffff1602179055506002805480919060019003610c559190610d4b565b5060019150610c71565b8080600101915050610b2a565b600091505b50919050565b828054600181600116156101000203166002900490600052602060002090601f016020900481019282601f10610cb857805160ff1916838001178555610ce6565b82800160010185558215610ce6579182015b82811115610ce5578251825591602001919060010190610cca565b5b509050610cf39190610d77565b5090565b602060405190810160405280600081525090565b602060405190810160405280600081525090565b815481835581811511610d4657818360005260206000209182019101610d459190610d77565b5b505050565b815481835581811511610d7257818360005260206000209182019101610d719190610d77565b5b505050565b610d9991905b80821115610d95576000816000905550600101610d7d565b5090565b905600a165627a7a72305820db1b2546d2b9343f2bd31789ad45b2fa2715c0b25318b483c70ac4c9d7bd8ddf0029606060405234156200001057600080fd5b6040516200107c3803806200107c83398101604052808051906020019091908051906020019091908051906020019091908051820191906020018051906020019091905050600085858585600286806000806101000a81548173ffffffffffffffffffffffffffffffffffffffff021916908373ffffffffffffffffffffffffffffffffffffffff1602179055508660018190555081600681905550856003819055506040805190810160405280868152602001858152506004906002620000da92919062000249565b5050505050505050620001006200010c640100000000026200076c176401000000009004565b505050505050620002e5565b6000600960009054906101000a900460ff161515156200012b57600080fd5b600760003373ffffffffffffffffffffffffffffffffffffffff1673ffffffffffffffffffffffffffffffffffffffff16815260200190815260200160002060009054906101000a900460ff161515156200018557600080fd5b6001600760003373ffffffffffffffffffffffffffffffffffffffff1673ffffffffffffffffffffffffffffffffffffffff16815260200190815260200160002060006101000a81548160ff02191690831515021790555060028054806001018281620001f391906200028e565b9160005260206000209001600033909190916101000a81548173ffffffffffffffffffffffffffffffffffffffff021916908373ffffffffffffffffffffffffffffffffffffffff160217905550506001905090565b82600281019282156200027b579160200282015b828111156200027a5782518255916020019190600101906200025d565b5b5090506200028a9190620002bd565b5090565b815481835581811511620002b857818360005260206000209182019101620002b79190620002bd565b5b505050565b620002e291905b80821115620002de576000816000905550600101620002c4565b5090565b90565b610d8780620002f56000396000f3006060604052600436106100d0576000357c0100000000000000000000000000000000000000000000000000000000900463ffffffff16806311184392146100d257806324924bf7146100fb57806335bc54621461012457806335c1d3491461015b5780633c8da588146101be57806354583bd4146101e75780635aa68ac01461024457806369766079146102ae5780636fa17a4d146102d0578063ad2e8c9b1461035e578063c615b433146103c8578063dc4d6181146103f5578063ed88c68e1461044a578063fc2b8cc314610454575b005b34156100dd57600080fd5b6100e5610469565b6040518082815260200191505060405180910390f35b341561010657600080fd5b61010e61046f565b6040518082815260200191505060405180910390f35b341561012f57600080fd5b6101456004808035906020019091905050610475565b6040518082815260200191505060405180910390f35b341561016657600080fd5b61017c600480803590602001909190505061048f565b604051808273ffffffffffffffffffffffffffffffffffffffff1673ffffffffffffffffffffffffffffffffffffffff16815260200191505060405180910390f35b34156101c957600080fd5b6101d16104ce565b6040518082815260200191505060405180910390f35b34156101f257600080fd5b610242600480803590602001908201803590602001908080601f016020809104026020016040519081016040528093929190818152602001838380828437820191505050505050919050506104d4565b005b341561024f57600080fd5b610257610688565b6040518080602001828103825283818151815260200191508051906020019060200280838360005b8381101561029a57808201518184015260208101905061027f565b505050509050019250505060405180910390f35b6102b661076c565b604051808215151515815260200191505060405180910390f35b34156102db57600080fd5b6102e36108a5565b6040518080602001828103825283818151815260200191508051906020019080838360005b83811015610323578082015181840152602081019050610308565b50505050905090810190601f1680156103505780820380516001836020036101000a031916815260200191505b509250505060405180910390f35b341561036957600080fd5b610371610943565b6040518080602001828103825283818151815260200191508051906020019060200280838360005b838110156103b4578082015181840152602081019050610399565b505050509050019250505060405180910390f35b34156103d357600080fd5b6103db6109da565b604051808215151515815260200191505060405180910390f35b341561040057600080fd5b6104086109ed565b604051808273ffffffffffffffffffffffffffffffffffffffff1673ffffffffffffffffffffffffffffffffffffffff16815260200191505060405180910390f35b610452610a12565b005b341561045f57600080fd5b610467610a14565b005b60035481565b60065481565b60048160028110151561048457fe5b016000915090505481565b60028181548110151561049e57fe5b90600052602060002090016000915054906101000a900473ffffffffffffffffffffffffffffffffffffffff1681565b60015481565b600960009054906101000a900460ff161515156104f057600080fd5b600280549050600654148061050757506003544210155b151561051257600080fd5b6000809054906101000a900473ffffffffffffffffffffffffffffffffffffffff1673ffffffffffffffffffffffffffffffffffffffff1663c3c5a547336000604051602001526040518263ffffffff167c0100000000000000000000000000000000000000000000000000000000028152600401808273ffffffffffffffffffffffffffffffffffffffff1673ffffffffffffffffffffffffffffffffffffffff168152602001915050602060405180830381600087803b15156105d657600080fd5b6102c65a03f115156105e757600080fd5b5050506040518051905015156105fc57600080fd5b8060089080519060200190610612929190610c36565b503373ffffffffffffffffffffffffffffffffffffffff166108fc3073ffffffffffffffffffffffffffffffffffffffff16319081150290604051600060405180830381858888f19350505050151561066a57600080fd5b6001600960006101000a81548160ff02191690831515021790555050565b610690610cb6565b610698610cb6565b60006002805490506040518059106106ad5750595b90808252806020026020018201604052509150600090505b600280549050811015610764576002818154811015156106e157fe5b906000526020600020900160009054906101000a900473ffffffffffffffffffffffffffffffffffffffff16828281518110151561071b57fe5b9060200190602002019073ffffffffffffffffffffffffffffffffffffffff16908173ffffffffffffffffffffffffffffffffffffffff168152505080806001019150506106c5565b819250505090565b6000600960009054906101000a900460ff1615151561078a57600080fd5b600760003373ffffffffffffffffffffffffffffffffffffffff1673ffffffffffffffffffffffffffffffffffffffff16815260200190815260200160002060009054906101000a900460ff161515156107e357600080fd5b6001600760003373ffffffffffffffffffffffffffffffffffffffff1673ffffffffffffffffffffffffffffffffffffffff16815260200190815260200160002060006101000a81548160ff0219169083151502179055506002805480600101828161084f9190610cca565b9160005260206000209001600033909190916101000a81548173ffffffffffffffffffffffffffffffffffffffff021916908373ffffffffffffffffffffffffffffffffffffffff160217905550506001905090565b60088054600181600116156101000203166002900480601f01602080910402602001604051908101604052809291908181526020018280546001816001161561010002031660029004801561093b5780601f106109105761010080835404028352916020019161093b565b820191906000526020600020905b81548152906001019060200180831161091e57829003601f168201915b505050505081565b61094b610cf6565b610953610cf6565b60026040518059106109625750595b908082528060200260200182016040525090506004600060028110151561098557fe5b015481600081518110151561099657fe5b9060200190602002018181525050600460016002811015156109b457fe5b01548160018151811015156109c557fe5b90602001906020020181815250508091505090565b600960009054906101000a900460ff1681565b6000809054906101000a900473ffffffffffffffffffffffffffffffffffffffff1681565b565b60011515600760003373ffffffffffffffffffffffffffffffffffffffff1673ffffffffffffffffffffffffffffffffffffffff16815260200190815260200160002060009054906101000a900460ff161515141515610a7357600080fd5b6000600760003373ffffffffffffffffffffffffffffffffffffffff1673ffffffffffffffffffffffffffffffffffffffff16815260200190815260200160002060006101000a81548160ff021916908315150217905550610ad433610ae1565b1515610adf57600080fd5b565b600080600090505b600280549050811015610c2b578273ffffffffffffffffffffffffffffffffffffffff16600282815481101515610b1c57fe5b906000526020600020900160009054906101000a900473ffffffffffffffffffffffffffffffffffffffff1673ffffffffffffffffffffffffffffffffffffffff161415610c1e576002600160028054905003815481101515610b7b57fe5b906000526020600020900160009054906101000a900473ffffffffffffffffffffffffffffffffffffffff16600282815481101515610bb657fe5b906000526020600020900160006101000a81548173ffffffffffffffffffffffffffffffffffffffff021916908373ffffffffffffffffffffffffffffffffffffffff1602179055506002805480919060019003610c149190610d0a565b5060019150610c30565b8080600101915050610ae9565b600091505b50919050565b828054600181600116156101000203166002900490600052602060002090601f016020900481019282601f10610c7757805160ff1916838001178555610ca5565b82800160010185558215610ca5579182015b82811115610ca4578251825591602001919060010190610c89565b5b509050610cb29190610d36565b5090565b602060405190810160405280600081525090565b815481835581811511610cf157818360005260206000209182019101610cf09190610d36565b5b505050565b602060405190810160405280600081525090565b815481835581811511610d3157818360005260206000209182019101610d309190610d36565b5b505050565b610d5891905b80821115610d54576000816000905550600101610d3c565b5090565b905600a165627a7a723058209d2a88f91b4d3976926689b01f7b68bb85a058a70bbc01c60ef4aebf531b1f0e0029a165627a7a72305820d28789570f65014e06ff9cac367738466c8ccafbfd8b50871bbcc328258948d30029",
  "source": "/**\n * @dev Deploys each Vacation contract\n */\n\npragma solidity ^0.4.18;\n\nimport './Vacation.sol';\nimport './DateNight.sol';\nimport './Loner.sol';\n\ncontract VacationFactory {\n    address[] vacations;\n    address[] dateNights;\n    address[] loners;\n    address public agentRegistry;\n\n    function VacationFactory(address _agentRegistry)  public {\n        agentRegistry = _agentRegistry;\n    }\n\n    function createVacation(uint256 _priceInWei, uint _registrationDeadline, uint _dateBegin, uint _dateEnd, address[] _whitelist, uint maxParticipants) returns (address vacation) {\n        address _vacation = new Vacation(_priceInWei,_registrationDeadline, _dateBegin, _dateEnd,  _whitelist, maxParticipants, agentRegistry);\n        vacations.push(_vacation);\n        return _vacation;\n    }\n\n    function createDatenight(uint256 _priceInWei, uint _registrationDeadline, uint _dateBegin, uint _dateEnd, address[] _whitelist, uint maxParticipants) returns (address dateNight) {\n        address _dateNight = new DateNight(_registrationDeadline, _dateBegin, _dateEnd, _whitelist, agentRegistry);\n        dateNights.push(_dateNight);\n        return _dateNight;\n    }\n\n    function createLoner(uint256 _priceInWei, uint _registrationDeadline, uint _dateBegin, uint _dateEnd, address[] _whitelist, uint maxParticipants) returns (address dateNight) {\n        address _loner = new Loner(_registrationDeadline, _dateBegin, _dateEnd, _whitelist, agentRegistry);\n        loners.push(_loner);\n        return _loner;\n    }\n\n    function getVacationLength() public view returns (uint) {\n        return vacations.length;\n    }\n\n    function getVacationByIndex(uint _index) public view returns (address) {\n        return vacations[_index];\n    }\n\n    function getLonerLength() public view returns (uint) {\n        return loners.length;\n    }\n\n    function getLonerByIndex(uint _index) public view returns (address) {\n        return loners[_index];\n    }\n\n    function getDateNightLength() public view returns (uint) {\n        return dateNights.length;\n    }\n\n    function getDateNightByIndex(uint _index) public view returns (address) {\n        return dateNights[_index];\n    }\n}",
  "sourcePath": "/home/deon/sites/aepp/aepp-blockchain/contracts/VacationFactory.sol",
  "compiler": {
    "name": "solc",
    "version": "0.4.18+commit.9cf6e910.Emscripten.clang"
  },
  "schemaVersion": "1.0.1",
  "updatedAt": "2017-12-09T21:30:54.239Z"
}